:020000040800F2
:100000006806002049010008AD3A00088732000860
:10001000A93A0008450C0008C5410008000000008E
:10002000000000000000000000000000DD3A0008B1
:10003000490C000800000000B13A0008453C0008E7
:100040006301000863010008630100086301000800
:1000500063010008630100086301000863010008F0
:1000600063010008630100086301000863010008E0
:1000700063010008630100086301000863010008D0
:100080006301000863010008F10A00086301000829
:1000900063010008630100086301000863010008B0
:1000A00063010008630100086301000863010008A0
:1000B0006301000863010008630100086301000890
:1000C0006301000863010008630100086301000880
:1000D0006301000863010008630100086301000870
:1000E0006301000863010008630100086301000860
:1000F0006301000863010008630100086301000850
:10010000630100086301000863010008630100083F
:10011000630100086301000863010008630100082F
:10012000630100086301000863010008630100081F
:10013000DFF810D000F086FC00480047E54B0008CF
:10014000AFF3008068060020064880470648004755
:10015000FEE7FEE7FEE7FEE7FEE7FEE7FEE7FEE777
:10016000FEE7FEE7CF3C000831010008202A04DB4F
:10017000203A21FA02F00021704721FA02F3D04020
:10018000C2F12002914008431946704740EA01033A
:100190009B0703D009E008C9121F08C0042AFAD23D
:1001A00003E011F8013B00F8013B521EF9D2704701
:1001B000D2B201E000F8012B491EFBD270470022A9
:1001C000F6E710B513460A4604461946FFF7F0FF56
:1001D000204610BDF0B480EA0102D40F4200B2EB19
:1001E000410F02D20246084611464A0042D0C30DD2
:1001F000DDB2C1F3C752AD1A202D35DAC1F31601B5
:1002000041F4000204B15242C5F1200602FA06F19F
:100210002A411044B3EBD05F23D0C4B1012DA0EB31
:10022000C35009DCF0BC4FF0004202EAC352DBB21B
:1002300000F5000000F0E0BA400000F1807000EB33
:10024000C350A0F1807040EAD170490009E049082C
:1002500041EAC071A0EBC35000F50000400800EB7C
:10026000C350F0BC00F0BFBA6142012202EB410171
:10027000001BF6E7F0BC704781F00041AAE780F070
:100280000040A7E780EA010210B502F000434000F9
:1002900022D04A001FD0010E01EB1261C0F35600BC
:1002A000C2F3560240F4000042F40002A0FB022018
:1002B00000047F39140400D0401C50EA124001D4DD
:1002C0004000491EC2B20C0604EBD010401C40088E
:1002D000802A02D003E0002010BD20F00100002998
:1002E00000DA0020184310BD30B480EA010202F0A9
:1002F000004530F0004221F0004013D090B1C30D12
:10030000D40DC2F31601C0F31600E41A41F4000143
:1003100040F400027D34914201D3641C00E04900A6
:10032000002C02DA30BC002070474FF4000000239C
:10033000914201D3891A034340084FEA4101F7D1A2
:1003400051B1914202D14FF0004105E002D24FF08D
:10035000010101E06FF0010103EBC450284430BCFF
:1003600000F041BA2DE9FE4F804681EA0300C00F3C
:100370000C46009021F0004123F00045B8EB02004C
:10038000A94105D24046214690461C460B460246EE
:1003900023F00040104347D0270DC7F30A00C3F3F2
:1003A0000A510290401A019040286BDAC3F31300FF
:1003B00040F4801B0098924620B10023D2EB030A40
:1003C00063EB0B0B01985946C0F14002504600F018
:1003D000E9F906460D4650465946019A00F0F1F9F2
:1003E00010EB08006141002487EA115284EAE773A8
:1003F0001A4340D0009A62B3019A012A4FEA075289
:1004000015DC001B61EB02014FF0004202EA0752CB
:10041000CDE90042001C41F5801132462B4600F028
:1004200057FA03B0BDE8F08F40462146F9E7001BBC
:1004300061EB0201001C41F5801300185B4120189C
:10044000A2F5001747EB030140EAD570B6196D41DC
:1004500011E06D084FEA360645EAC0754FEA0752CB
:10046000001B61EB0201001C41F5801149084FEAB5
:1004700030000019514132462B4603B0BDE8F04F21
:1004800000F017BA0098012240000023D0EB0202CE
:1004900063EBE073009821464FEAE074B8EB00008C
:1004A00061EB0401E9E783F000435BE781F0004181
:1004B00058E72DE9FE4F81EA030404F0004421F0DF
:1004C000004100944FF0000B23F0004350EA010478
:1004D0005ED052EA03045BD0C3F30A54C1F30A5559
:1004E0002C44A4F2F3340194A0FB0254C1F3130191
:1004F00041F48011C3F3130343F4801301FB02445E
:1005000000FB034E840A970A44EA815447EA835762
:10051000A4FB076802958D0A05FB07854FEA932C1B
:1005200004FB0C542705029D4FEA065847EA16378C
:10053000B5EB08056EEB070C870E920E47EA8117A4
:1005400042EA8312A7FB0201B6EB0B0164EB000445
:100550002B0D43EA0C335E1844EB1C50DA4651462F
:10056000E7FB0201C5F313044FEA0B3343EA1453CC
:100570004FEA0432019C43EA0603A4F10C040294FE
:10058000009CCDE900B400F0A3F903B0BDE8F08F02
:1005900000200146F9E72DE9F04D81EA030404F05B
:1005A000004B21F0004514464FF0000A23F00041B3
:1005B00050EA050220D054EA01021DD0C5F30A57C3
:1005C0000246C5F31303C1F31300C1F30A5640F406
:1005D000801543F48013A7EB0608101BD64608F2DB
:1005E000FD3873EB050002D308F1010801E0921811
:1005F0005B41B8F1000F03DA00200146BDE8F08D41
:1006000000204FF48011064684460EE0171B73EB62
:10061000050705D3121B63EB050306434CEA010CE7
:1006200049084FEA300092185B4150EA0107EDD1CA
:1006300052EA030012D082EA040083EA050108436B
:1006400005D0101BAB4106D20122002306E0002298
:100650004FF0004302E06FF0010253101AEB060066
:100660004CEB085110EB0A0041EB0B01BDE8F04DDB
:1006700000F01FB9C10F80EAE0700844CA07962352
:10068000002100F0B9B896230022114600F0B4B85A
:100690000EB5C10F80EAE0700844CA07002140F29D
:1006A00033438DE80E000A460B4600F011F903B003
:1006B00000BD00F0004220F00040C10DC0F3160064
:1006C00040F400007F2901DA00207047962903DCFE
:1006D000C1F19601C84001E096398840002AF4D063
:1006E0004042704700F0004230F000400AD0C10D97
:1006F00001F56071C0F3160042EA0151C2084007DB
:1007000011437047002001467047000030B5041EB9
:1007100071F1000404DB4FF00044404264EB01013E
:10072000141E73F1000405DB1C464FF000435242D7
:1007300063EB04038B4208BF824230BD30B5041E18
:1007400071F1000404DB4FF00044404264EB01010E
:10075000141E73F1000405DB1C464FF000435242A7
:1007600063EB0403994208BF904230BD01F000439F
:1007700030B421F0004150EA010206D00A0DA2F582
:100780006072C1F31301002A02DC30BC0020704704
:10079000440F44EAC104C100E01830BC00EBC25071
:1007A00000F021B8202A04DB203A00FA02F10020F0
:1007B00070479140C2F1200320FA03F3194390409F
:1007C0007047202A06DBCB17203A41FA02F043EAB1
:1007D000E07306E041FA02F3D040C2F120029140FA
:1007E0000843194670470029A8BF7047401C4900BC
:1007F00008BF20F00100704710B4B0FA80FC00FA86
:100800000CF050EA010404BF10BC704749B1CCF1B0
:10081000200421FA04F411FA0CF118BF012121433C
:100820000843A3EB0C01CB1D4FEA00614FEA1020F7
:1008300042BF002010BC704700EBC3501044002999
:10084000A4BF10BC7047401C490008BF20F0010045
:1008500010BC7047F0B4002802DCF0BC00207047E8
:10086000C0F3C751C0F3160040F40000CA0701D11D
:100870004000491E3F2202EB6105002211464FF461
:10088000000626FA01F31344D418844201D8001B51
:100890001A464000491C1729F3DD5100814202D25B
:1008A0004FF0FF3100E0002102EBC550F0BCFFF734
:1008B0009ABF10B5141E73F1000408DA401C41F110
:1008C000000192185B411A4301D120F0010010BDD4
:1008D0002DE9F04D92469B4611B1B1FA81F202E04A
:1008E000B0FA80F220329046FFF75CFF04460F46D4
:1008F00040EA0A0041EA0B0153465A46084313D026
:10090000114653EA010019D0C8F140025046FFF7E2
:100910002DFC05460E46504659464246FFF742FF1B
:10092000084305D0012004E020463946BDE8F08D9B
:100930000020054346EAE0762C4337430A986305D6
:10094000E40AA0EB08000022FD0A44EA47540A30FA
:1009500002D500200146E9E7010510196941DDE9EA
:10096000084500196941BDE8F04DA2E72DE9F04DB9
:1009700000231A461B1A8A4103DB00200146BDE80A
:10098000F08DC1F30A52C1F3130141F480154FF009
:10099000000BD10702D100186D41521E00270446FA
:1009A00040F2FF11384601EB620A3E46804602469D
:1009B00000204FF48011FFF7D9FBC2197141BB1819
:1009C00046EB0100B4EB030C75EB000C04D3E41A06
:1009D00065EB000517460E46241908F101006D412C
:1009E00080463428E3DDF91946EB0600091BA841CF
:1009F00003D24FF0FF32134601E0002213461BEBF7
:100A0000070046EB0A51BDE8F04DFFF752BF002842
:100A100001DBC0F10040002901DBC1F1004181424E
:100A200002D24FF0004004E04FF0005001D14FF0EF
:100A3000C0404FEA2062EFF3008162F31F6181F34F
:100A400000887047064C074D06E0E06840F001035F
:100A500094E8070098471034AC42F6D3FFF76CFBDC
:100A6000904F0008B04F000870B521F000430343D9
:100A70000CD0C1F30A550024D5EB040564EB040344
:100A8000D617AD1AB34102DB0020014670BD201815
:100A900041EB025170BD0EB540F23341029100218D
:100AA000CDE900110A460B46FFF712FF03B000BD67
:100AB00070B5C1F30A5201F000450024C1F31301DF
:100AC00040F2FF3341F480119A4201DA002070BDF8
:100AD00040F233439A42A2F2334203DC5242FFF720
:100AE00045FB00E090402C43F1D0404270BD000037
:100AF00010B5024800F0E7FB10BD000050010020D7
:100B000070B5044600252068806800F0010018B325
:100B10002068806820F001002168886000F086FF6E
:100B2000054613E000F082FF401B02280ED9206822
:100B3000806800F0010048B1A06A40F01000A06297
:100B4000E06A40F00100E062012070BD206880682A
:100B500000F001000028E5D10020F6E738B5044692
:100B60000025002000902068806800F0010078BB1C
:100B70002068806840F0010021688860194800689A
:100B80001949B0FBF1F0009002E00098401E00907F
:100B900000980028F9D100F049FF054619E000F05F
:100BA00045FF401B022814D92068806800F001002E
:100BB00078B9A06A40F01000A062E06A40F001003D
:100BC000E06200BF002084F8240000BF012038BD8F
:100BD00005E02068806800F001000028DFD00020D8
:100BE000F5E700004400002040420F0010B586B039
:100BF0004FF0FF340020059004903220012105AA17
:100C00000B46CDE9002102900D226C210C4800F02A
:100C1000FBFF3220012104AA0B46CDE900210290FE
:100C20000C226C21064800F0EFFF9DF814009DF89F
:100C3000101040EA012004B2204606B010BD0000AA
:100C40008001002000BFFEE77047000070B54FF440
:100C50007A74002520E02848016828480068FFF7DA
:100C6000B9FA264908602448416825480068FFF71A
:100C7000B1FA234908602048816822480068FFF7DC
:100C8000A9FA204908601C48C1681F480068FFF79E
:100C9000A1FA1D4908606D1CA542DCDB2046FFF768
:100CA000F2FC0546294615480068FFF71DFB13496D
:100CB00008602046FFF7E7FC054629461048006813
:100CC000FFF712FB0E4908602046FFF7DCFC0546E3
:100CD00029460C480068FFF707FB0A4908602046D0
:100CE000FFF7D1FC0546294607480068FFF7FCFAE4
:100CF0000549086070BD00004C0000200400002081
:100D0000080000200C0000201000002072B600BF78
:100D1000FEE70000F8B5044600260020009000BF62
:100D200094F82400012801D10220F8BD012084F8A4
:100D3000240000BF2046FFF7E3FE06462046FFF7EB
:100D40000DFF0646002E69D1A06A20F4885040F0BD
:100D50000200A062022001F01DFA34490968B1FBCB
:100D6000F0F04000009002E00098401E00900098D3
:100D70000028F9D12068806840F008002168886068
:100D800000F054FE054616E000F050FE401B0A2815
:100D900011D92068806800F0080060B1A06A20F0D6
:100DA000020040F01000A06200BF002084F8240080
:100DB00000BF0120B9E72068806800F00800002823
:100DC000E2D12068806840F004002168886000F06B
:100DD0002DFE054616E000F029FE401B0A2811D919
:100DE0002068806800F0040060B1A06A20F0020072
:100DF00040F01000A06200BF002084F8240000BF73
:100E0000012092E72068806800F004000028E2D109
:100E1000A06A20F0020040F00100A06200BF0020A4
:100E200084F8240000BF30467FE700004400002023
:100E300038B50246002300200090906800B100BF42
:100E400000BF92F82400012801D1022038BD012002
:100E500082F8240000BF906890B94868012809D141
:100E60001068806B6FF315000C6840EAC43014689A
:100E7000A06338E0906A40F020009062012332E0E5
:100E80000C694868A0421ED84C680869001BC0F174
:100E9000030000EB80041F20A04040F440141068C1
:100EA000806BA0434D680C69641BC4F1030404EB20
:100EB00084050C68AC400D8A6D1E44EA055420433D
:100EC0001468A0630FE04C680869001BC0F10300C0
:100ED00000EB80041F20A04040F440141068806B99
:100EE000A0431468A0631068806800F00100A8B9EE
:100EF0001068806847F20104A043664D1468AC4254
:100F000008D18C69B4F5C04F02D14FF4804402E09F
:100F10008C6900E08C6920431468A060487D01283A
:100F20000FD18869B0F5E04F06D11068406840F4F1
:100F300080601468606004E0906A40F02000906275
:100F40000123087D01280DD1487D30B91068406823
:100F500040F480501468606004E0906A40F0200023
:100F60009062012308680A2812D31068C0680C78C0
:100F70000A3C04EB44050724AC40A0430D780A3D2D
:100F800005EB45058C68AC4020431468E0600FE039
:100F9000106800690C7804EB44050724AC40A043BA
:100FA0000D7805EB45058C68AC4020431468206142
:100FB0000868102802D00868112805D110688068D8
:100FC00040F400001468A0604868012806D0022898
:100FD0000DD0032814D004281BD11BE010684069F1
:100FE0006FF30B00CC682043146860611BE010684D
:100FF00080696FF30B00CC6820431468A06112E095
:101000001068C0696FF30B00CC6820431468E0617E
:1010100009E000BF1068006A6FF30B00CC68204342
:101020001468206200BF00BF0868102802D008685A
:10103000112827D1184C1068A0421ED11068806872
:1010400000F40000F0B91068806840F400001468F3
:10105000A0600868102815D110480068104CB0FB3B
:10106000F4F000EB80004000009002E00098401E89
:10107000009000980028F9D104E0906A40F0200028
:101080009062012300BF002082F8240000BF1846B0
:10109000DCE60000003C0140002401404400002048
:1010A00040420F0010B586B004463E4884426ED1DF
:1010B00001460968C86BFFF7E6FA3B490860086813
:1010C0003A49FFF7DFF83849086036490968086C83
:1010D000FFF7D9FA3449486048683449FFF7D2F835
:1010E000314948602F490968486CFFF7CCFA2E490E
:1010F000886088682D49FFF7C5F82B498860294921
:101100000968886CFFF7BFFA2749C860C868274993
:10111000FFF7B8F82449C86025480078012836D17F
:1011200003F03EFD684602F0D3FA182269462148D2
:10113000FFF72CF8684602F01FFB182269461E488C
:10114000FFF724F81B4A1D496FF0020003F0B8FCBA
:101150001B4908600846016804A803F09BFB194876
:10116000DDE9041206C01749684602F0B9FC1822EE
:1011700069461548FFF70AF81349D1E90401CDE99A
:10118000000111480FC802F017FD03F063FD084885
:10119000007820B9FFF75AFD01200549087006B014
:1011A00010BD0000500100204C0000205940533A6F
:1011B000000000205C00002074000020A40000203B
:1011C00030000020140000208C00002070B5044680
:1011D000002500BF94F82400012801D1022070BD31
:1011E000012084F8240000BF2046FFF7B7FC054625
:1011F000002D5BD1A06A42F20101884340F4805087
:10120000A0622E492068884208D12D48006800F469
:10121000702008B9012002E0002000E0012020B188
:10122000A06A20F48010A06203E0A06A40F480105D
:10123000A062A06A00F4807008B90020E06200BFDC
:10124000002084F8240000BF401F21680860206847
:10125000406840F08000216848602068406800F4E1
:10126000806010BB2068806800F4E040B0F5E04F7B
:1012700015D112492068884208D11148006800F44D
:10128000702008B9012002E0002000E0012030B108
:101290002068806840F40210216888600BE02068B4
:1012A000806840F400402168886004E000BF0020AE
:1012B00084F8240000BF284691E700000028014080
:1012C00004240140704770B5044620680568206812
:1012D000466806F0200020282DD105F002000228E3
:1012E00029D1A06A00F0100018B9A06A40F400707B
:1012F000A0622068806800F46020B0F5602F13D1F0
:10130000207B88B92068406820F020002168486070
:10131000A06A20F48070A062A06A00F4805018B91E
:10132000A06A40F00100A0622046FFF7CBFF6FF0FB
:1013300012002168086006F08000802839D105F08D
:101340000400042835D1A06A00F0100018B9A06A82
:1013500040F40050A0622068806800F4E040B0F5DE
:10136000E04F0DD02068406800F48060D0B920685C
:10137000806800F46020B0F5602F13D1207B88B91D
:101380002068406820F0800021684860A06A20F44E
:101390008050A062A06A00F4807018B9A06A40F082
:1013A0000100A0622046FFF77DFE6FF00C0021686F
:1013B000086006F0400040280DD105F0010050B152
:1013C000A06A40F48030A062204600F0B5F86FF0CB
:1013D00001002168086070BD2DE9F0410446002736
:1013E00000250026A84614B90120BDE8F081A068B8
:1013F00010B1207D00B100BFA06A30B90020E062CA
:1014000084F82400204600F099F82046FFF778FB86
:101410000746A06A00F01000002873D1002F7ED18B
:10142000A06A20F4885040F00200A0623F4AD4E94C
:101430000001904208D1E069B0F5402F02D14FF48D
:10144000002002E0E06900E0E0690143207B41EA1E
:1014500040000643A068B0F5807F02D0A068012854
:1014600002D14FF4807000E000200543207D012868
:1014700011D1207B38B9A069401E4FF4006141EAC8
:101480004030054307E0A06A40F02000A062E06A17
:1014900040F00100E0622068406820F46940284381
:1014A00021684860206880682149084030432168ED
:1014B0008860A068B0F5807F02D0A068012802D1C2
:1014C0004FF4807000E00020B0F5807F03D1208AC7
:1014D000401E4FEA00582068C06A20F4700040EABD
:1014E00008002168C8622068806812490840B0423C
:1014F00009D10020E062A06A20F0020040F0010063
:10150000A06211E00BE0A06A20F0020040F01000A1
:10151000A062E06A40F00100E062012704E0A06AF6
:1015200040F01000A062012738465EE7003C014011
:10153000FDF7E1FFFE0E1FFF7047000010B586B0FB
:1015400004460020029003900490059018492068FA
:1015500088422AD100BF1748806940F400701549BD
:1015600088610846806900F40070019000BF00BFE8
:1015700000BF0846806940F0040088610846806921
:1015800000F00400019000BF00BFF0200290032093
:10159000039002A9084800F0A9F800221146122081
:1015A00000F0A6FD122000F093FD06B010BD000073
:1015B00000240140001002400008014070B50446BC
:1015C000002500BF94F82400012801D1022070BD3D
:1015D000012084F8240000BF2046FFF7BFFA05462B
:1015E000002D77D1A06A40F20121884340F4807039
:1015F000A0623C492068884208D13B48006800F45A
:10160000702008B9012002E0002000E0012078B13C
:10161000A06A20F48010A0622068406800F4806016
:1016200000B3A06A20F4005040F48050A06219E09A
:10163000A06A40F48010A0622B49091F20688842EC
:1016400003D028492068884204D12748006800F464
:10165000806000E0002028B1A06A20F4005040F42F
:101660008050A062A06A00F4805020B1E06A20F0AF
:101670000600E06201E00020E06200BF002084F884
:10168000240000BFC01E216808602068806800F444
:101690006020B0F5602F16D112492068884208D129
:1016A0001148006800F4702008B9012002E0002011
:1016B00000E0012038B12068806840F4A000216873
:1016C00088600CE006E02068806840F480102168A3
:1016D000886004E000BF002084F8240000BF284692
:1016E00075E7000000280140042401402DE9F84777
:1016F000024600239C467BE14FF0010808FA03F400
:10170000D1F8008008EA0400A0427DD1DFF8F4A2FD
:10171000D1F80480A8EB0A09D0453AD014DCB8F11E
:10172000030F50D009DCB8F1000F31D0B8F1010F30
:101730001CD0B8F1020F49D120E0B8F1110F18D038
:10174000B8F1120F42D11EE0B9F5881F25D006DC92
:10175000B9F5803F20D0B9F5801F37D11AE0B9F52F
:10176000001F18D0B9F5041F30D117E0D1F80CC014
:101770002DE0D1F80C8008F1040C28E0D1F80C80A1
:1017800008F1080C23E0D1F80C8008F10C0C1EE0E5
:1017900000BF00BF00BF00BF00BF00BFD1F808807E
:1017A000B8F1000F02D14FF0040C0BE0D1F8088023
:1017B000B8F1010F03D14FF0080C146102E04FF0B3
:1017C000080C546103E04FF0000C00E000BF00BFC4
:1017D000FF2801D8904601E002F104084646FF28A0
:1017E00002D84FEA830803E0A3F108084FEA88080B
:1017F0004746D6F800804FF00F0909FA07F928EAA2
:1018000009080CFA07F900E07AE048EA0908C6F886
:101810000080D1F8048008F08058B8F1805F6FD163
:1018200000BFDFF8E481D8F8188048F00108DFF83D
:10183000D891C9F81880C846D8F8188008F001086F
:10184000CDF8008000BF00BF4FEAB9384FEA9309D6
:1018500058F829504FEA83784FEA18794FF00F086B
:1018600008FA09F825EA0805DFF8A081424502D107
:101870004FF0000824E0DFF89881424502D14FF094
:1018800001081DE0DFF88C81424502D14FF00208CB
:1018900016E0DFF88481424502D14FF003080FE0E3
:1018A000DFF87881424502D14FF0040808E0DFF804
:1018B0007081424502D14FF0050801E04FF0060863
:1018C0004FEA83794FEA197908FA09F848EA0505D9
:1018D000DFF850814FEA930948F82950D1F8048085
:1018E00008F48018B8F5801F0BD1DFF83C81D8F8D8
:1018F000008048EA0008DFF83091C9F800800AE06B
:1019000075E0DFF82481D8F8008028EA0008DFF8C5
:101910001891C9F80080D1F8048008F40018B8F5CF
:10192000001F0ED1DFF8008108F10408D8F800800C
:1019300048EA0008DFF8F09009F10409C9F80080CE
:101940000DE0DFF8E48008F10408D8F8008028EA08
:101950000008DFF8D49009F10409C9F80080D1F833
:10196000048008F40038B8F5003F0ED1DFF8B880E5
:10197000A8F10408D8F8008048EA0008DFF8A89029
:10198000A9F10409C9F800800DE0DFF89C80A8F1F6
:101990000408D8F8008028EA0008DFF88C90A9F144
:1019A0000409C9F80080D1F8048008F48038B8F53B
:1019B000803F0ED1DFF87080A8F10808D8F80080C9
:1019C00048EA0008DFF86090A9F10809C9F800802A
:1019D0000DE0DFF85480A8F10808D8F8008028EA64
:1019E0000008DFF84490A9F10809C9F800805B1CE1
:1019F000D1F8008028FA03F8B8F1000F7FF47CAE2C
:101A0000BDE8F887000011100010024000080140F6
:101A1000000C01400010014000140140001801407A
:101A2000001C014008000140080401400148006812
:101A3000704700003800002070B504460CB9012042
:101A400070BD94F83D0028B9002084F83C00204681
:101A500000F094FA242084F83D002068006820F00B
:101A60000100216808602068006840F40040216897
:101A700008602068006820F400402168086000F0D9
:101A800079FD05465C496068884206D85B48854216
:101A900001D2012007E0002005E05948854201D22B
:101AA000012000E00020012800D1C9E75548B5FB1E
:101AB000F0F62068406820F03F003043216848601D
:101AC0004D496068884201D8701C07E04FF4967059
:101AD00070434FF47A71B0FBF1F0401C2168096A41
:101AE00021F03F0108432168086243496068884249
:101AF00014D8681E61684900B0FBF1F0401CC0F3C7
:101B00000B00042801D204203DE0681E61684900F2
:101B1000B0FBF1F0401CC0F30B0034E0A06838B912
:101B2000681E616801EB4101B0FBF1F0401C0AE066
:101B3000681E616801EBC10202EB0111B0FBF1F01C
:101B4000401C40F48040C0F30B0008B901201AE0AB
:101B5000A06848B9681E616801EB4101B0FBF1F073
:101B6000401CC0F30B000CE0681E616801EBC10271
:101B700002EB0111B0FBF1F0401CC0F30B0040F48C
:101B8000804040F400402168C9694CF6FF729143DF
:101B900008432168C861D4E907010843216809683E
:101BA00021F0C001084321680860D4E9031008430C
:101BB0002168896848F2FF329143084321688860B0
:101BC000D4E9050108432168C96821F0FF010843F1
:101BD0002168C8602068006840F001002168086042
:101BE00000202064202084F83D000020206384F839
:101BF0003E0000BF24E70000A086010080841E0094
:101C000000093D0040420F002DE9FE4F04460F46FB
:101C100090469946DDE90CAB0E9E00200290FFF73E
:101C200005FF054694F83D00202872D119230122B2
:101C3000CE492046009501F0F7FB10B10220BDE827
:101C4000FE8F00BF94F83C00012801D10220F6E786
:101C5000012084F83C0000BF2068006800F001000B
:101C600028B92068006840F00100216808602068F9
:101C7000006820F4006021680860222084F83D009C
:101C8000402084F83E0000202064C4F824A0A4F87A
:101C90002AB0608D2085B648E0624B464246394600
:101CA0002046CDE9006501F00FFB08B10120C6E731
:101CB000208D88B900BF0020019020684069019004
:101CC00020688069019000BF00BF2068006840F470
:101CD0000070216808604BE0208D01281AD120682F
:101CE000006820F480602168086072B600BF0020A0
:101CF000019020684069019020688069019000BFD0
:101D000000BF2068006840F400702168086062B677
:101D10002EE029E1208D022819D12068006840F4C6
:101D200000602168086072B600BF00200190206842
:101D30004069019020688069019000BF00BF206861
:101D4000006820F480602168086062B610E02068B6
:101D5000006840F480602168086000BF00200190A6
:101D600020684069019020688069019000BF00BF31
:101D7000EBE0208D03287DD8208D012815D12A463F
:101D80003146204601F02CFC08B1012057E72068BD
:101D90000069616A0870606A401C6062208D401EA4
:101DA0002085608D401E6085CFE0208D02282CD1DB
:101DB000334600226F492046009501F035FB08B1FB
:101DC00001203CE772B62068006840F4007021688A
:101DD000086020680069616A0870606A401C60627F
:101DE000208D401E2085608D401E608562B6206873
:101DF0000069616A0870606A401C6062208D401E44
:101E00002085608D401E60859FE033460022594941
:101E10002046009501F008FB08B101200FE720687B
:101E2000006820F480602168086072B6206800694C
:101E3000616A0870606A401C6062208D401E2085C7
:101E4000608D401E60854C4800681921B0FBF1F0A0
:101E50004FF47A71B0FBF1F0C0EBC00000EB8000F2
:101E6000029000BF0298401E02900298A8B900207C
:101E7000206300E039E0202084F83D00002084F851
:101E80003E00206C40F02000206462B600BF0020BD
:101E900084F83C0000BF0120D1E620684069C0F30F
:101EA00080000028DED02068006840F400702168BF
:101EB000086020680069616A0870606A401C60629E
:101EC000208D401E2085608D401E608562B6206892
:101ED0000069616A0870606A401C6062208D401E63
:101EE0002085608D401E60852FE02A4631462046C1
:101EF00001F076FB08B10120A1E620680069616A63
:101F00000870606A401C6062208D401E2085608DD4
:101F1000401E608520684069C0F38000A8B1208D14
:101F2000032805D12068006820F4806021680860DB
:101F300020680069616A0870606A401C6062208DD8
:101F4000401E2085608D401E6085208D00287FF416
:101F500010AF202084F83D00002084F83E0000BF30
:101F600084F83C0000BF6AE6022068E60200100028
:101F70000000FFFF040001004400002010B586B0FF
:101F800004460020029003900490059015492068B3
:101F9000884225D100BF1448806940F008001249EA
:101FA00088610846806900F00800019000BF00BF0A
:101FB000C0200290122003900320059002A90B4834
:101FC000FFF794FB00BF0848C06940F400100649C1
:101FD000C8610846C06900F40010019000BF00BF4E
:101FE00006B010BD0054004000100240000C01403B
:101FF00003480068034909780844014908607047AC
:10200000380000204000002010B50848006840F06B
:10201000100006490860032000F0A8F80F2000F027
:1020200007F800F02BF8002010BD0000002002404F
:1020300070B504460E4800784FF47A71B1FBF0F0A9
:102040000C490968B1FBF0F5284600F01DFD08B108
:10205000012070BD102C07D200222146501E00F036
:1020600047F80548046001E00120F2E70020F0E7AE
:1020700040000020440000203C00002008B500BFC4
:102080001148806940F001000F4988610846806965
:1020900000F00100009000BF00BF00BF0846C0690B
:1020A00040F08050C8610846C06900F08050009040
:1020B00000BF00BF00BF0549486820F0E06040F065
:1020C0000070486000BF08BD0010024000000140E1
:1020D00001460846002809DB00F01F0301229A4050
:1020E00043099B0003F1E023C3F8002100BF7047C0
:1020F0002DE9F05F80460D461646002702F078F87D
:10210000074639462A46334601F00700C0F1070A60
:10211000BAF1040F02D94FF0040A01E0C0F1070A36
:10212000D14600F1040ABAF1070F02D24FF0000ABB
:1021300001E0A0F1030AD4464FF0010A0AFA09FAB5
:10214000AAF1010A0AEA020A0AFA0CFA4FF0010B94
:102150000BFA0CFBABF1010B0BEA030B4AEA0B0485
:102160002146404602F04CF8BDE8F09F00BF00F069
:102170000702064B19684FF6FF031940044B0B4347
:1021800043EA0221014B196000BF70470CED00E0EB
:102190000000FA052DE9F04706464FF0000800253B
:1021A00000270024A146042E37D004DC012E3CD0A9
:1021B000022E6CD160E0082E33D0102E67D1364845
:1021C0004468006800F0807008B33448C4F3834169
:1021D000475C04F4803078B12F484068C0F3404039
:1021E0002F4911F8008004F4803040B12D48B0FB35
:1021F000F8F000FB07F502E02B4807FB00F5264846
:10220000406800F48000B0F5800F01D1A94603E0DA
:1022100068000321B0FBF1F93AE000F0CBF9814608
:1022200036E000F0C7F9814632E01B48046A04F446
:102230004070B0F5807F05D104F0020010B14FF47A
:10224000004918E004F44070B0F5007F07D112484F
:10225000406A00F0020010B149F640490BE004F476
:102260004070B0F5407F06D10B48006800F40030A4
:1022700008B14FF224490BE000F08CF90649496897
:10228000C1F38131491C4900B0FBF1F900E000BF06
:1022900000BF4846BDE8F08700100240464E0008E7
:1022A000564E000800127A0000093D00F8B50446B9
:1022B00000260025207800F0010000286BD00027C0
:1022C0004348C06900F0805070B900BF4048C06901
:1022D00040F080503E49C8610846C06900F0805017
:1022E000009000BF00BF01273A48006800F48070EA
:1022F000B0B93848006840F4807036490860FFF78C
:1023000095FB064606E0FFF791FB801B642801D988
:102310000320F8BD2F48006800F480700028F2D038
:102320002B48006A00F440752DB3A08800F440707B
:10233000A84220D02648006A20F440750120264992
:102340000860002008602248056205F0010090B195
:10235000FFF76CFB064608E0FFF768FB801B41F2C5
:102360008831884201D90320D3E71948006A00F078
:1023700002000028F0D01648006A20F4407061681E
:10238000084313490862012F04D10846C06920F0B0
:102390008050C86100BF207800F00200022807D1F9
:1023A0000B48406820F44040A16808430849486051
:1023B000207800F01000102807D10548406820F46C
:1023C000800061690843024948600020A1E70000DD
:1023D00000100240007000404004424270B50446C4
:1023E0000D460CB9012070BD5A48006800F0070086
:1023F000A8420ED25748006820F0070028435549EC
:1024000008600846006800F00700A84201D00120DB
:10241000E9E7207800F0020002281DD1207800F0C2
:102420000400042805D14C48406840F4E0604A4963
:102430004860207800F00800082805D14648406828
:1024400040F46050444948604348406820F0F00040
:10245000A168084340494860207800F0010078B343
:102460006068012806D13C48006800F4003090B94B
:102470000120B8E76068022806D13748006800F0FC
:10248000007040B90120AEE73348006800F0020058
:1024900008B90120A7E73048406820F003006168D0
:1024A00008432D494860FFF7C1FA064609E0FFF7E7
:1024B000BDFA801B41F28831884202D9032092E79D
:1024C00007E02548406800F00C006168B0EB810F20
:1024D000EDD12048006800F00700A8420ED91D4841
:1024E000006820F0070028431A4908600846006881
:1024F00000F00700A84201D0012074E7207800F026
:102500000400042807D11448406820F4E060E16822
:10251000084311494860207800F00800082808D1D5
:102520000D48406820F46050216940EAC1000A4922
:10253000486000F03FF808494968C1F30311074AB1
:10254000515CC8400649086006480068FFF770FD06
:10255000002048E70020024000100240584E0008CA
:10256000440000203C000020014800687047000043
:102570004400002000B5FFF7F7FF04494968C1F3A4
:102580000221034A515CC84000BD00000010024017
:10259000684E000800B5FFF7E7FF04494968C1F33A
:1025A000C221034A515CC84000BD00000010024037
:1025B000684E000870B5002100220024002300208E
:1025C000134D696801F00C05F5B1042D02D0082DFA
:1025D00019D101E00F4819E00F4DC1F38346AB5DFF
:1025E00001F4803555B10A4D6D68C5F340450B4E79
:1025F000725D084D5D43B5FBF2F402E0084D03FB4C
:1026000005F4204602E000BF024800BF00BF70BDD5
:102610000010024000127A00344E0008444E0008B8
:1026200000093D00F8B504460CB90120F8BD20783A
:1026300000F00100002878D0F848406800F00C0055
:1026400004280CD0F548406800F00C00082811D18F
:10265000F248406800F48030B0F5803F0AD1EF487E
:10266000006800F4003000285FD0606800285CD16A
:102670000120DBE700BF6068B0F5803F06D1E74886
:10268000006840F48030E549086028E0606858B987
:10269000E248006820F48030E0490860084600689D
:1026A00020F4802008601AE06068B0F5A02F0BD1FC
:1026B000DA48006840F48020D8490860084600687D
:1026C00040F4803008600AE0D448006820F480308C
:1026D000D24908600846006820F48020086000BFE6
:1026E000606888B1FFF7A2F9054606E0FFF79EF99A
:1026F000401B642801D9032098E7C848006800F40B
:1027000000300028F2D010E0FFF790F9054606E00F
:10271000FFF78CF9401B642801D9032086E7BF48E6
:10272000006800F400300028F2D1207800F00200A8
:10273000022857D1B948406800F00C0050B1B748A2
:10274000406800F00C00082818D1B448406800F434
:10275000803098B9B148006800F0020020B12069CB
:10276000012801D0012061E7AC48006820F0F800A2
:10277000616940EAC100A949086033E02069E8B115
:102780000120A7490860FFF751F9054606E0FFF769
:102790004DF9401B022801D9032047E79F480068F4
:1027A00000F002000028F2D09C48006820F0F800F9
:1027B000616940EAC1009949086013E00020984926
:1027C0000860FFF733F9054606E0FFF72FF9401BD5
:1027D000022801D9032029E79048006800F0020090
:1027E0000028F2D1207800F0080008282DD1A06937
:1027F000B8B101208B490860FFF718F9054606E0DB
:10280000FFF714F9401B022801D903200EE7834883
:10281000406A00F002000028F2D0012001F04AF9DD
:1028200013E000207F490860FFF700F9054606E045
:10283000FFF7FCF8401B022801D90320F6E6774891
:10284000406A00F002000028F2D1207800F0040075
:10285000042873D100277148C06900F0805070B916
:1028600000BF6E48C06940F080506C49C86108469E
:10287000C06900F08050009000BF00BF01276A4887
:10288000006800F48070B0B96748006840F4807058
:1028900065490860FFF7CAF8054606E0FFF7C6F885
:1028A000401B642801D90320C0E65F48006800F49B
:1028B00080700028F2D000BFE068012806D1574898
:1028C000006A40F001005549086227E0E06858B905
:1028D0005248006A20F00100504908620846006A28
:1028E00020F00400086219E0E06805280BD14B488D
:1028F000006A40F00400494908620846006A40F056
:10290000010008620AE04548006A20F001004349DE
:1029100008620846006A20F00400086200BFE06810
:10292000A0B1FFF783F8054609E0FFF77FF8401BE9
:1029300041F28831884202D9032077E622E0374805
:10294000006A00F002000028EFD012E0FFF76EF8F6
:10295000054608E0FFF76AF8401B41F288318842DB
:1029600001D9032062E62D48006A00F00200002829
:10297000F0D1012F05D12948C06920F080502749A6
:10298000C86100BFE069C8B32448406800F00C008B
:10299000082860D0E069022848D100202049086654
:1029A000FFF744F8054606E0FFF740F8401B022811
:1029B00001D903203AE61948006800F000700028A9
:1029C000F2D1206AB0F5803F07D11448406820F466
:1029D0000030A168084311494860D4E90801084360
:1029E0000E49496821F4741108430C4948600120DC
:1029F0000B490866FFF71AF8054607E03DE0FFF7C8
:102A000015F8401B022801D903200FE6034800688F
:102A100000F000700028F2D02FE00000001002400B
:102A200000004242800442420070004000201449ED
:102A30000866FEF7FBFF054606E0FEF7F7FF401BC2
:102A4000022801D90320F1E50E48006800F000706B
:102A50000028F2D111E0E069012800D1E6E509483B
:102A6000466806F48031206A814204D106F4701170
:102A7000606A814201D00120D8E50020D6E500003F
:102A8000000042420010024070B504462546681E10
:102A9000B0F1807F01D301200FE0681E4FF0E021EC
:102AA00048610F214FF0FF3001F0AAFB00204FF0EA
:102AB000E021886107200861002070BD10B5034641
:102AC000002200BF93F83C00012801D1022010BD74
:102AD000012083F83C0000BF22F0FF00CC6840EAF0
:102AE000040222F440708C6840EA040222F4806000
:102AF0004C6840EA040222F400600C6840EA0402D8
:102B000022F480500C6940EA040222F400504C691F
:102B100040EA040222F48040CC6940EA04021868CA
:102B2000426400BF002083F83C0000BF00BFCEE736
:102B300030B502460B4600BF92F83C00012801D197
:102B4000022030BD012082F83C0000BF022082F844
:102B50003D00106844681068816824F070041868AB
:102B6000044310684460144D1068A84213D0134DFC
:102B70001068A8420FD01068B0F1804F0BD0104DF4
:102B80001068A84207D00F4D1068A84203D00E4D20
:102B90001068A84205D121F08001586801431068EF
:102BA0008160012082F83D0000BF002082F83C00D7
:102BB00000BF00BFC5E70000002C01400034014009
:102BC0000004004000080040000C004010B504461E
:102BD0000CB9012010BD94F83D0028B9002084F8FC
:102BE0003C00204600F026F8022084F83D00211D1C
:102BF000206801F06DF8012084F8460000BF84F8D9
:102C00003E0001213F200155402001554120015542
:102C100000BF00BF012084F842004320015544203A
:102C200001554520015500BF012084F83D000020DA
:102C3000D0E7000008B5094A016891420DD100BFF4
:102C40000749896941F40061054A91611146896922
:102C500001F40061009100BF00BF08BD002C0140DD
:102C600000100240014691F83D00012801D00120EA
:102C70007047022081F83D00164B0868984213D037
:102C8000154B086898420FD00868B0F1804F0BD000
:102C9000124B0868984207D0114B0868984203D03D
:102CA000104B086898420CD10868806800F0070251
:102CB000062A0CD00868006840F001000B68186014
:102CC00005E00868006840F001000B68186000200B
:102CD000CEE70000002C0140003401400004004019
:102CE00000080040000C00402DE9F04104460D466C
:102CF000002700BF94F83C00012802D10220BDE863
:102D0000F081012084F83C0000BF022084F83D00DF
:102D10002068866826F0770626F47F46206886605D
:102D20002868502833D00CDC202850D004DC002840
:102D30004BD0102851D149E0302849D040284CD1FF
:102D400039E060282DD0702807D0B0F5805F03D01F
:102D5000B0F5005F41D10DE041E0D5E902136A68AA
:102D6000206801F01CF82068866846F07706206825
:102D7000866034E0D5E902136A68206801F00FF834
:102D80002068806840F480402168886027E0EA6815
:102D90006968206801F0F4F85021206801F00AF811
:102DA0001DE0EA686968206801F0FDF8602120688C
:102DB00001F000F813E0EA686968206801F0E0F8C3
:102DC0004021206800F0F6FF09E000BF00BF00BF0F
:102DD0002968206800F0EEFF01E0012700BF00BF76
:102DE000012084F83D0000BF002084F83C0000BFB3
:102DF000384684E710B586B0044600200290039060
:102E00000490059014492068884222D100BF1348DD
:102E1000806940F04000114988610846806900F0EF
:102E20004000019000BF00BF4FF4285002900220E4
:102E30000390059002A90A48FEF758FC00BF094913
:102E4000486820F0C00040F0E06040F0C0004860FA
:102E500000BF06B010BD0000002C01400010024071
:102E600000180140000001402DE9F04104460D46E4
:102E70001646002700BF94F83C00012802D102202A
:102E8000BDE8F081012084F83C0000BF36B1042E7B
:102E90001BD0082E31D00C2E5ED145E0294620688B
:102EA00000F092FF2068806940F008002168886186
:102EB0002068806920F004002168886120688069AA
:102EC000296908432168886148E02946206800F0A4
:102ED000B3FF2068806940F4006021688861206841
:102EE000806920F480602168886120688069296990
:102EF00040EA01202168886130E02946206800F01E
:102F0000D9FF2068C06940F008002168C8612068C6
:102F1000C06920F004002168C8612068C06929697F
:102F200008432168C86119E02946206800F0FEFFC7
:102F30002068C06940F400602168C8612068C069E9
:102F400020F480602168C8612068C069296940EA6E
:102F500001202168C86101E0012700BF00BF00BF58
:102F6000002084F83C0000BF384689E710B50446CD
:102F70000CB9012010BD94F83D0028B9002084F858
:102F80003C00204600F025F8022084F83D00211D79
:102F9000206800F09DFE012084F8460000BF84F800
:102FA0003E0001213F20015540200155412001559F
:102FB00000BF00BF012084F8420043200155442097
:102FC00001554520015500BF012084F83D00002037
:102FD000D0E7704770B504460D4615B994F83E0029
:102FE0000BE0042D02D13F20005D06E0082D02D148
:102FF0004020005D01E04120005D012801D001205A
:1030000070BD1DB9022084F83E000EE0042D03D1EE
:1030100002213F20015508E0082D03D10221402064
:10302000015502E002214120015501222946206874
:1030300000F0A4FE1F492068884203D01E49206882
:10304000884201D1012000E0002028B12068406CB6
:1030500040F400402168486416492068884213D033
:103060001549206888420FD02068B0F1804F0BD0FE
:1030700012492068884207D011492068884203D04D
:103080001049206888420CD12068806800F007064B
:10309000062E0CD02068006840F00100216808600E
:1030A00005E02068006840F0010021680860002009
:1030B000A6E70000002C014000340140000400405D
:1030C00000080040000C004010B504460CB9012077
:1030D00010BDA06900B100E000BF94F8410028B91C
:1030E000002084F84000204600F02AF8242084F8CC
:1030F00041002068C06820F400502168C860204664
:1031000000F09CFF2068006920F49040216808616D
:103110002068406920F02A00216848612068C06862
:1031200040F400502168C86000206064202084F8CA
:10313000410084F842000020606300BFC8E700003F
:1031400010B586B0044600200290039004900590CC
:103150001A49206888422ED100BF1948806940F47E
:103160008040174988610846806900F480400190DA
:1031700000BF00BF00BF0846806940F004008861BE
:103180000846806900F00400019000BF00BF4815A8
:103190000290022003900320059002A90948FEF73F
:1031A000A5FA4FF48060029000200390049002A9D9
:1031B0000448FEF79BFA06B010BD0000003801403D
:1031C00000100240000801402DE9F84F04460E4669
:1031D000174699464FF0000A94F84100202850D134
:1031E00006B117B90120BDE8F88F002060642120E6
:1031F00084F84100FEF71AFC8246A784E784A068A1
:10320000B0F5805F04D1206910B90025B04602E016
:1032100035464FF000081EE053460022802120462C
:10322000CDF8009000F088FF20B1202084F8410004
:103230000320D8E745B9B8F80000C0F308002168BA
:10324000486008F1020803E02878216848606D1C96
:10325000E08C401EE084E08C0028DDD15346002243
:1032600040212046CDF8009000F066FF20B12020DC
:1032700084F841000320B6E7202084F841000020B4
:10328000B1E70220AFE700BFFEE7014608684069EA
:10329000C0F38020B0B16FF480600A6850610020F4
:1032A0000863202081F83D00002081F83E00086C72
:1032B00040F00400086400BF002081F83C0000BF1B
:1032C000012070470020FCE72DE9F84304460F4633
:1032D00015469946DDE908862068006840F480605C
:1032E000216808602068006840F4807021680860E8
:1032F000434600224FF001112046009600F094F85A
:1033000060B12068006800F48070B0F5807F02D161
:103310004FF4007020640320BDE8F88307F0FE003E
:1033200021680861334642463E49204600F0DBF8FA
:1033300008B10120F0E700BF00200090206840693C
:10334000009020688069009000BF00BF324641466F
:10335000204600F08AF950B1206C042805D120687D
:10336000006840F40070216808600120D4E7B9F1DA
:10337000010F03D1E8B22168086117E0C5F3072007
:103380002168086132464146204600F06EF950B18E
:10339000206C042805D12068006840F40070216882
:1033A00008600120B8E7E8B221680861324641466A
:1033B000204600F05AF950B1206C042805D120684D
:1033C000006840F40070216808600120A4E72068CC
:1033D000006840F4807021680860434600224FF086
:1033E00001112046009600F01FF858B120680068CF
:1033F00000F48070B0F5807F02D14FF4007020643B
:10340000032089E7F8B240F00100216808613346E3
:1034100042460449204600F066F808B101207BE7E7
:10342000002079E7020001002DE9F04104460D4635
:1034300017461E46DDF8188038E0701CA8B3FEF76A
:10344000F5FAA0EB0800B04200D876BBC5F3074000
:1034500001280AD120684069A9B20840A9B288426F
:1034600001D101200BE0002009E020688069A9B2A9
:103470000840A9B2884201D1012000E00020B842F2
:1034800014D100202063202084F83D00002084F81F
:103490003E00206C40F02000206400BF002084F833
:1034A0003C0000BF0120BDE8F081FFE7C5F3074005
:1034B00001280AD120684069A9B20840A9B288420F
:1034C00001D101200BE0002009E020688069A9B249
:1034D0000840A9B2884201D1012000E00020B84292
:1034E000ABD00020DFE72DE9F04104460D4616463B
:1034F0001F4658E020684069C0F38020E8B120688A
:10350000006840F40070216808606FF480602168F2
:10351000486100202063202084F83D00002084F8CA
:103520003E00206C40F00400206400BF002084F8BE
:103530003C0000BF0120BDE8F081701C90B3FEF795
:1035400075FAC01BB04200D866BBC5F3074001281E
:103550000AD120684069A9B20840A9B2884201D1C5
:1035600001200BE0002009E020688069A9B2084032
:10357000A9B2884201D1012000E0002090B90020CA
:103580002063202084F83D00002084F83E00206C59
:1035900040F02000206400BF002084F83C0000BF01
:1035A0000120C8E7FFE7C5F3074001280AD12068DA
:1035B0004069A9B20840A9B2884201D101200BE0BC
:1035C000002009E020688069A9B20840A9B28842B9
:1035D00001D1012000E0002000288BD00020AAE7C4
:1035E00070B504460D46164637E020684069C0F3C2
:1035F0000010A0B16FF01000216848610020206326
:10360000202084F83D00002084F83E00206C2064D7
:1036100000BF002084F83C0000BF012070BDFEF711
:1036200005FA801BA84200D8BDB920684069C0F3E4
:10363000801090B900202063202084F83D000020F5
:1036400084F83E00206C40F02000206400BF002081
:1036500084F83C0000BF0120E0E720684069C0F327
:1036600080100028C1D00020D8E770B504460D4670
:10367000164625E02046FFF708FE08B1012070BD80
:10368000681CE8B1FEF7D2F9801BA84200D8BDB98A
:1036900020684069C0F3C01090B90020206320204A
:1036A00084F83D00002084F83E00206C40F02000AB
:1036B000206400BF002084F83C0000BF0120DEE74A
:1036C00020684069C0F3C0100028D3D00020D6E79E
:1036D00070B504462249086822490968FCF7CCFD08
:1036E00006462149FCF700FE05462049FCF7FCFD93
:1036F0001F4908601A4948681E490968FCF7BCFD63
:1037000006461949FCF7F0FD05461849FCF7ECFDA3
:10371000174948601249086812490968FCF7ACFD6E
:1037200006461149FCF7E0FD05461049FCF7DCFDB3
:103730000F49C8600A4948680E490968FCF79CFDB2
:1037400006460949FCF7D0FD05460849FCF7CCFDC3
:103750000749086118222046FCF718FD70BD0000DB
:103760004C00002004000020000048C20AD7233C7F
:10377000080100200800002070B504461E49886832
:103780001E490968FCF778FD06461D49FCF7ACFDAB
:1037900005461C49FCF7A8FD1B4908601649C86886
:1037A0001A490968FCF768FD06461549FCF79CFDB7
:1037B00005461449FCF798FD134948600E4988688E
:1037C0000E490968FCF758FD05460D49FCF78CFDCC
:1037D0000D49C8600849C8680C490968FCF74CFDE8
:1037E00005460749FCF780FD074908611822204675
:1037F000FCF7CCFC70BD00004C0000200400002051
:10380000000048C20AD7233C200100200800002005
:1038100000B587B01C216846FCF7D1FC284829492F
:1038200008608115274881600021017301754FF4FC
:103830006021C161002023494860012121480161C4
:10384000FDF7CAFD08B1FDF761FA042000900120E0
:1038500001900420049001200290000306900020B3
:103860008DF815008DF81400039069461548FDF792
:10387000DFFA08B1FDF74AFA052000900220019016
:1038800069461048FDF7D4FA08B1FDF73FFA062063
:1038900000900320019069460A48FDF7C9FA08B173
:1038A000FDF734FA0720009004200190694605488E
:1038B000FDF7BEFA08B1FDF729FA07B000BD000018
:1038C000002401405001002008B500BF1348806962
:1038D00040F00400114988610846806900F0040046
:1038E000009000BF00BF00BF0846806940F0400064
:1038F00088610846806900F04000009000BF00BF6A
:1039000000BF0846806940F0080088610846806969
:1039100000F00800009000BF00BF08BD001002408A
:1039200010B50B480B4908600B4848600021094856
:103930008160C1604FF4804101610021416181617A
:10394000C1610162FEF778F808B1FDF7DFF910BD3B
:103950000054004080010020A086010000B595B011
:10396000002011901290139014900F9010901C2131
:1039700008A8FCF724FC20216846FCF720FC3A4804
:103980003A4908600020486020213848816040F2B0
:10399000AF41C1604FF480710161002141618161DB
:1039A000FFF714F908B1FDF7B1F94FF48050119009
:1039B00011A92E48FFF798F908B1FDF7A7F92B4890
:1039C000FFF7D4FA08B1FDF7A1F970200F9000209D
:1039D00010900FA92548FFF7ABF808B1FDF796F94D
:1039E00060200890002009900A900B900C900D9098
:1039F0000E90002208A91D48FFF736FA08B1FDF71E
:103A000085F9042208A91948FFF72EFA08B1FDF735
:103A10007DF9082208A91548FFF726FA08B1FDF735
:103A200075F940F2AE4009900C2208A90F48FFF743
:103A30001BFA08B1FDF76AF900200090019002908E
:103A4000039004904FF400500590002007906946C1
:103A50000648FFF733F808B1FDF758F90348FFF7B8
:103A6000C9F915B000BD0000002C0140D4010020B0
:103A700010B50B480B4908604FF4612048600021E5
:103A800008488160C16001610C21416100218161B0
:103A9000C161FFF719FB08B1FDF738F910BD00004F
:103AA000003801401C02002000BFFEE700BFFEE717
:103AB0007047000008B508490968C9084FF47A72D0
:103AC000B1FBF2F14143009100BF00BF00994A1ED3
:103AD00000920029F9D108BD440000207047000081
:103AE0002DE9FF5F07460C46D4F80080304801F00E
:103AF0008BF94FF080410090FCF7F6FB834661683C
:103B0000FCF7C0FB82464FF03F402168FCF7BAFB50
:103B100051460190FCF75EFB0546254801F074F91B
:103B20004FF080410090FCF7DFFB83466168FCF7B3
:103B3000A9FB82464FF03F402168FCF7A3FB5146AA
:103B40000190FCF799FB06462946404601F000F833
:103B50008246314600F0FCFF03902946404601F0C2
:103B60000BF88246314601F007F80290DDE90210B9
:103B7000FCF730FB82464FF08041FCF7B5FB8146F5
:103B800049464046FCF778FB0A49C8604946284642
:103B9000FCF772FB0749086149463046FCF76CFBAD
:103BA0000449486118223846FCF7F0FABDE8FF9F47
:103BB00000004040380100200FB42DE9F0471E49B5
:103BC0000B98FCF791FB81464FF07C51FCF702FB10
:103BD00080461A49FCF756FB0746FCF76AFD044687
:103BE00015490C98FCF780FB81464FF07C51FCF79F
:103BF000F1FA80461149FCF745FB0746FCF759FDF1
:103C000005460D490D98FCF76FFB81464FF07C513E
:103C1000FCF7E0FA80460949FCF734FB0746FCF75D
:103C200048FD064606480460001D0560001D06604C
:103C3000BDE8F0075DF814FB000040410000964429
:103C4000342C014010B5FEF7D3F910BD00B595B086
:103C500028210BA8FCF7B3FA142106A8FCF7AFFA49
:103C600018216846FCF7ABFA01200B9000040C9079
:103C700000200D9001200F9002201290C10313919B
:103C80004FF4E01114910BA8FEF7CCFC08B1FDF73E
:103C90003DF80F20069002200790002008904FF476
:103CA0008060099000200A90022106A8FEF796FB8A
:103CB00008B1FDF72BF802200090800302906846BF
:103CC000FEF7F4FA08B1FDF721F815B000BD704712
:103CD00010B50268244B98420ED0244B98420BD06A
:103CE000B0F1804F08D0224B984205D0214B98422A
:103CF00002D0214B984203D122F070024B681A4344
:103D0000194B98420ED0194B98420BD0B0F1804F0E
:103D100008D0174B984205D0164B984202D0164B4C
:103D2000984203D122F44072CB681A4322F08003F8
:103D30004C6943EA040202608B68C3620B688362C9
:103D4000094B984202D0094B984201D10B69036399
:103D500001234361036903F001031BB1036923F0ED
:103D60000103036110BD0000002C0140003401403C
:103D70000004004000080040000C004030B501F095
:103D80001F05012404FA05F3046A9C430462046AD3
:103D900001F01F0502FA05F52C43046230BD30B571
:103DA0000C46816821F47F4142EA032525432943DB
:103DB000816030BD0A46816821F0700142F007033E
:103DC000194381607047000030B5026A056A25F02A
:103DD000010505624368846924F0700424F003043B
:103DE0000D682C4322F002028D682A43104DA84230
:103DF00000D103E00F4DA84206D100BF22F0080217
:103E0000CD682A4322F00402094DA84202D0094D90
:103E1000A84207D123F4807323F400734D692B4328
:103E20008D692B43436084614D684563026230BDF8
:103E3000002C01400034014030B5026A056A25F0CB
:103E4000100505624368846924F4E04424F4407456
:103E50000D6844EA052422F020028D6842EA05122A
:103E6000124DA84200D103E0114DA84207D100BF76
:103E700022F08002CD6842EA051222F040020B4D8A
:103E8000A84202D00A4DA84209D123F4806323F44A
:103E900000634D6943EA85038D6943EA8503436006
:103EA00084614D688563026230BD0000002C0140D2
:103EB0000034014030B5026A056A25F48075056258
:103EC0004368C46924F0700424F003040D682C4393
:103ED00022F400728D6842EA0522124DA84200D1F8
:103EE00003E0114DA84207D100BF22F40062CD6863
:103EF00042EA052222F480620A4DA84202D00A4D0D
:103F0000A84209D123F4805323F400534D6943EAB6
:103F100005138D6943EA05134360C4614D68C563A9
:103F2000026230BD002C01400034014030B5036A0C
:103F3000056A25F4805505624468C26922F4E042AE
:103F400022F440720D6842EA052223F400538D6882
:103F500043EA0533084DA84202D0084DA84204D1D7
:103F600024F480444D6944EA85144460C2614D687C
:103F70000564036230BD0000002C014000340140A4
:103F800030B50B461446026A056A25F00105056244
:103F9000816921F0F00141EA041122F00A021A437A
:103FA0008161026230BD30B50B461446026A056A73
:103FB00025F010050562816921F4704141EA043160
:103FC00022F0A00242EA03128161026230BD00BF0A
:103FD00000BF02680C3252E8002F22F49071026890
:103FE0000C3242E80013002BF3D100BF00BF00BF2A
:103FF0000268143252E8002F22F0010102681432E4
:1040000042E80013002BF3D100BF016B01290ED150
:1040100000BF00BF02680C3252E8002F22F01001EE
:1040200002680C3242E80013002BF3D100BF2021BC
:1040300080F84210002101637047000070B504460B
:104040002168096921F44051E26811432268116135
:104050002269A1681143626941EA02052168C968C1
:1040600041F20C62914329432268D1602168496979
:1040700021F44071A2691143226851612D4A2168DF
:10408000914202D1FEF786FA01E0FEF773FA00EBE7
:10409000C00101EB001162689200B1FBF2F100EB8C
:1040A000C00202EB001263689B00B2FBF3F26423D0
:1040B000B2FBF3F202EBC20303EB0212A1EB8201AB
:1040C000322202EB01116422B1FBF2F101F0F001A6
:1040D00000EBC00202EB001263689B00B2FBF3F23C
:1040E0006423B2FBF3F201EB021200EBC00101EB1F
:1040F000001163689B00B1FBF3F100EBC00303EB1D
:1041000000136668B600B3FBF6F36426B3FBF6F360
:1041100003EBC30606EB0313A1EB8301322303EB8E
:1041200001116423B1FBF3F101F00F011144226886
:10413000916070BD003801402DE9F84304460D46FA
:1041400017469846089E31E0701C70B3FDF76EFC70
:10415000A0EB0800B04200D816B90320BDE8F883F0
:104160002068C06800F00400F8B1802D1ED0402DFA
:104170001CD020680068C0F3C000B0B100BF0020B0
:10418000009020680068009020684068009000BFA0
:1041900000BF2046FFF71BFF0820606400BF00201F
:1041A00084F8400000BF0120D8E7FFE720680068DE
:1041B0002840A84201D1012000E00020B842C3D02D
:1041C0000020CBE700BFFEE7490050EAC12018BF3E
:1041D00004204A0D18BF40F0010040F2FF72B2EB1C
:1041E000515F08BF40F00200012808BF052070475A
:1041F00002480068C0F30220704700000CED00E0A8
:1042000010B5002804DB0A07130E054A135406E014
:104210000A07140E034A00F00F031B1FD45410BDED
:1042200000E400E018ED00E02DE9F74F144694B0EB
:104230000021C4E902111599079121F00045C949EF
:104240008D4206DC1599C4E9000117B00020BDE8D5
:10425000F08FC549DFF814A3A9423CDD0799C44E8D
:104260000029C44FC44A1599534619DDFCF71BF9C0
:10427000554506D0C14AC24BFCF715F9C4E9000107
:104280000AE04FF0D352BE4BFCF70DF932463B46E5
:10429000FCF709F9C4E9000117B00120BDE8F08F6F
:1042A000FCF760F8554506D0B44AB54BFCF75AF810
:1042B000C4E900010AE04FF0D352B14BFCF752F8C9
:1042C00032463B46FCF74EF8C4E9000117B04FF008
:1042D000FF30BDE8F08FAB49A942159978DB21F09A
:1042E000004183468846A84AA84BFCF7E2F8002222
:1042F000A74BFCF737F8FCF7DBFB0990FCF7C8F994
:1043000006460F469C4A5346FCF7D3F843465A46A6
:10431000FCF7CCF880468A46984A994B3046394695
:10432000FCF7C7F82A0D01250B9242465346FCF7CD
:10433000BDF8032DC4E9000139D00B98C1F30A512F
:10434000401A05EB45111139814230DA9148C346D4
:10435000784400EB0510CDF80CA00C90D0E90023B8
:1043600030463946FCF7A5F802460B460491069004
:1043700058460399FCF797F880468A4602460B4652
:1043800058460399FCF78FF8049B069AFCF78BF8C4
:1043900083460C9803913946D0E902233046FCF756
:1043A00088F85A46039BFCF77EF86D1CBDE707981A
:1043B0000028A2BF099817B0BDE8F08F616881F0AE
:1043C00000416160099817B04042BDE8F08FFFE7F7
:1043D00084461598C1F31301C0F30A50A0F2F530DA
:1043E0004FEA601800F01F06C6F12000139000206D
:1043F0000690079041F4801E05206D4676B1664A0E
:1044000008EB00017A4452F8213002EB8101B340FD
:104410004A68139922FA01F1194305E05F4908EB54
:104420000002794451F82210A1FB0E27A1FB0C13C6
:104430001A449A4234BF0123002303EB070A05EB19
:104440008003D3E901B70F448F4234BF012100211B
:1044500093448B4411B1934502D903E0934501D2B3
:10446000012100E00021C3E901B7514445F82010C3
:10447000011EA0F10100C1DC0298059F00F100506F
:10448000800F12900298DDE903568000FCF700F9D6
:10449000834628460D91FCF7FEFA6FF01D02FCF7EB
:1044A000E3FACDE90E013046FCF7F5FA6FF03D0274
:1044B000FCF7DAFA80468A463846FCF7ECFA6FF0E9
:1044C0005D02FCF7D1FA0746424653461191FBF7CD
:1044D00049FFDDE90E23FBF745FF5A460D9BFBF72D
:1044E00041FF00250E465A4628460D9BFBF7DBFF91
:1044F000DDE90E23FBF7D7FF42465346FBF7D3FF18
:104500003A46119BFBF7D2FFDFF898A0244A5346A6
:10451000FBF7CFFF07468846234A244B31462846FF
:10452000FBF7C7FF3A464346FBF71CFF07468846A2
:104530004FF0A842534631462846FBF7BAFF3A46A9
:104540004346FBF70FFF159A12F0004F04D0129A62
:1045500081F0004152421292C4E90001129817B052
:10456000BDE8F08FFB21E93F7CD90240FB21F93FF8
:104570007370032E8A19A33B000040543163621A02
:1045800061B4D03DFB21394183C8C96D305FE43F40
:104590000000E03F4C0B0000C80A0000AA0A00001F
:1045A000182D4454FB21F93D3326A611460B113C2E
:1045B0002DE9FF4D21F0004807460C46B8F1795F20
:1045C00008DAFCF775FA002801BF0020324904B070
:1045D000BDE8F08D3A46234610461946FBF769FFC1
:1045E000054602462D480E460B460621784400F04B
:1045F0005DF82A463346FBF75CFFDDE9022382467D
:104600008B4638462146FBF754FF04460F46524678
:104610005B4628463146FBF74CFF22463B46FBF7FC
:1046200042FF07468A464FF0FF3228463146FCF7E4
:104630001BFA1B4A90450ADA3A465346FBF733FF0A
:1046400004B00022BDE8F04D134BFBF72FBF154A15
:104650004245A8BFA8F500154FF00004B8BF124DA1
:1046600022462B46FBF71FFF0646884622462B466E
:1046700000200949FBF717FF04460D463A4653460A
:1046800030464146FBF70FFF04B022462B46BDE8FB
:10469000F04DFBF70BBF00000000F03F800800006A
:1046A0003333D33F0000E93F0000D23F2DE9F04112
:1046B0004F1E00EBC7010446D1E9000115461E4616
:1046C00037F006020DD02A463346FBF7F2FE7F1E76
:1046D00004EBC703D3E90023FBF744FE37F00602DF
:1046E000F1D1022F25D0042F13D0062F18BFBDE81B
:1046F000F0812A463346FBF7DCFED4E90A23FBF7B8
:1047000031FE2A463346FBF7D4FED4E90823FBF7F3
:1047100029FE2A463346FBF7CCFED4E90623FBF7F5
:1047200021FE2A463346FBF7C4FED4E90423FBF7F7
:1047300019FE2A463346FBF7BCFED4E90223FBF7F9
:1047400011FE2A463346FBF7B4FED4E90023BDE848
:10475000F041FBF707BE00002DE9FF4D054621F0B3
:10476000004084B00C46B0F1795F0BDA2846FFF7C1
:104770002BFD042808BF00F06FF8284608B021463A
:10478000BDE8F08D2A460B461046FBF792FE064622
:104790000F462A462346FBF78CFE804626488A466B
:1047A00032463B4605217844FFF780FF8346109848
:1047B000029160B3214A224B40465146FBF779FEF5
:1047C000CDE900015A4640465146029BFBF771FE77
:1047D00082468846DDE906014FF0FF32FCF744F9D6
:1047E00052464346FBF75FFE32463B46FBF761FE0F
:1047F000DDE90623FBF757FEDDE90023FBF753FE57
:1048000008B02A462346BDE8F04DFBF74FBE0B46E5
:104810005A4630463946FBF74CFE084A084BFBF730
:10482000A1FD42465346FBF744FE08B02A46234604
:10483000BDE8F04DFBF796BDBE0700004955555544
:104840005555C5BF0122FCF70FB90022134610468B
:104850001146FBF7A0BE0000024A00201107FCF73A
:1048600003B9000001FDFFFF02E008C8121F08C1E4
:10487000002AFAD170477047002001E001C1121FE1
:10488000002AFBD170470000014908607047000012
:10489000480000202DE9FF5F83468A4619480068DA
:1048A000FBF720FF804600F039FA04460D468AF0F7
:1048B00000484046FBF716FF064622462B46FBF70C
:1048C000F8FDCDE90001FBF751FF02900D480068AB
:1048D000FBF708FFCDE9000100F0A4F806460F46FB
:1048E0005046FBF7FFFE044632463B46FBF7E1FD30
:1048F0008046FBF73BFF0390DDE90201CBE90001B5
:10490000BDE8FF9F340000202DE9F04F89B0044638
:10491000D4F80C904FF080402169FBF7B3FC80463F
:10492000E168FBF757FC0746FBF7DCFECDE9040125
:1049300000203A4900F042FA07460022374BFBF7C5
:104940002AFE8246DDE90423FBF7B3FD0546FBF7AB
:104950000DFF089032480068FBF7C4FE824600F065
:10496000DDF905460E460898FBF7BCFE07462A46C9
:104970003346FBF79EFDCDE9020129480068FBF7AD
:10498000B1FE054600F04EF8074688464846FBF75C
:10499000A9FE82463A464346FBF78BFDCDE900016E
:1049A000DDE90223FBF7DEFCCDE90401FBF7DEFEC7
:1049B00007901B480068FBF795FE074600F032F8A9
:1049C00005460E460898FBF78DFE82462A4633467A
:1049D000FBF76FFDCDE9020111480068FBF782FE8D
:1049E000074600F09BF905460E4689F00047384619
:1049F000FBF778FE82462A463346FBF75AFDCDE99F
:104A00000001DDE90223FBF7ADFCCDE90401FBF772
:104A1000ADFE0690069809B0BDE8F08F0000084092
:104A20003400002000B5244B21F0004287B09A42A8
:104A3000DCBF0022134629DD204B9A4208D140B941
:104A40004FF00100FFF720FFFFF7FFFE07B000BDAA
:104A500003DBFFF7F7FE07B000BD02AAFFF7E4FB98
:104A600010F0030104BF0DF1080C9CE80F000DD0FD
:104A7000012001290ED0022914D00DF1080C00905C
:104A80009CE80F00FFF768FE07B000BDFFF790FD40
:104A900007B000BD0DF1080C00909CE80F00FFF777
:104AA0005BFE05E00DF1080C9CE80F00FFF780FDB0
:104AB00007B081F0004100BDFB21E93F0000F07F1D
:104AC0002DE9F04106460C4615463046FBF7D2FD6F
:104AD00020602846FFF718FF2062216A2068FBF754
:104AE000CBFBA062A16AA068FBF7CCFBA063A16A24
:104AF000E068FBF7C7FB0746E16BFBF76BFBE06386
:104B0000D4E90E01FBF766FB2065206DFBF7EAFD9B
:104B100007460A4A0A4BFBF711FE01D209482065F5
:104B2000206DFBF7DFFD0746044A074BFBF7EEFD60
:104B300001D206482065206DBDE8F081F6285C8F23
:104B4000C2F5184014AEC740C2F518C014AEC7C0B5
:104B500070B50C460546FBF75AFF00F07040B0F107
:104B6000005F07D024F00040C0F1FF40C00F04BF39
:104B7000204670BD284670BD70B50C460546FBF753
:104B800046FF00F07040B0F1004F07D024F0004025
:104B9000C0F1FF40C00F04BF204670BD284670BD65
:104BA0002DE9F047FCF722F88246FBF771FD064637
:104BB000084A094BFBF77DFC04460022074BFBF734
:104BC00078FC8046FBF7D2FD05490860084600687E
:104BD000BDE8F087E25B5837DE1D593F000010400A
:104BE00034000020FDF710FAFFF730F8FEF76CFEF6
:104BF000FEF70EFEFEF7B2FEFEF73AFFFEF790FE5E
:104C00001148FCF7DBFC1048FCF784F80F48FEF76E
:104C100029F800210D48FEF7DDF904210B48FEF7C5
:104C2000D9F908210948FEF7D5F90C210748FEF704
:104C3000D1F94FF07E50064988600020C86002E03C
:104C40000148FCF7C3FAFBE750010020D401002023
:104C5000A400002010B529490868FBF714FD284975
:104C600008602649091D0868FBF70DFD2549086005
:104C700025480068254908602348006A24490860DF
:104C8000002407E01E4801190A2301222148FEF7EB
:104C90009BFA641C042CF5DB002407E01948011979
:104CA0000A2301221B48FEF78FFA641C042CF5DB53
:104CB000002407E0154801190A2301221548FEF7D0
:104CC00083FA641C042CF5DB002407E0104801196A
:104CD0000A2301220F48FEF777FA641C042CF5DB47
:104CE000002407E00C4801190A2301220948FEF7B5
:104CF0006BFA641C042CF5DB10BD0000342C014061
:104D00001C00002020000020A4000020240000201F
:104D1000280000201C0200202C00002000B5254B9C
:104D200021F0004287B09A4203DC00221346009231
:104D30002BE0214B9A4208D140B94FF00100FFF718
:104D4000A3FDFFF782FD07B000BD03DBFFF77AFD8F
:104D500007B000BD02AAFFF767FA10F003014FF099
:104D600001000DD0012914D002291AD00DF1080C30
:104D70009CE80F00FFF71CFC07B081F0004100BD6C
:104D80000DF1080C00909CE80F00FFF7E5FC07B060
:104D900000BD0DF1080C9CE80F00FFF709FC07B0FF
:104DA00000BD0DF1080C00909CE80F00FFF7D4FC4B
:104DB000E2E70000FB21E93F0000F07F2DE9F04130
:104DC00006460F46FBF7D2FD041E0D4618BF012014
:104DD000284320F00040C0F17F6000F1E040C00FA8
:104DE0000ED0301C18BF0120384320F00040C0F125
:104DF0007F6000F1E040C00F04BF0120FFF744FDD9
:104E000020462946BDE8F08170B50546FBF722FD36
:104E1000044620F00040C0F1FF40C00F08D025F04C
:104E20000040C0F1FF40C00F04BF0120FFF72CFD80
:104E3000204670BD02030405060708090A0B0C0D85
:104E40000E0F1010010202030405060708090A0BE1
:104E50000C0D0E0F101001020000000000000000F9
:104E60000102030406070809000000000102030410
:104E70004C5555555555A53F7751C1166CC156BF78
:104E80009015CB19A001FA3EAD529C804F7E92BE88
:104E9000C4B1B4BD9EEE213ED43888BEE9FAA8BDA7
:104EA00000004054FB21F93F3163621A61B4D03DE8
:104EB0000000601A61B4D03D7370032E8A19A33BC1
:104EC0000000002E8A19A33BC14920259A837B3913
:104ED00000000000000000006E83F9A22915444E76
:104EE000D15727FCC0DD34F5999562DB4190433CF6
:104EF000AB6351FE61C5BBDE3A6E24B7E0D24D42D2
:104F0000EA2E49061C92D1091CEB1DFE3EA729B1D1
:104F1000F53582E88444BB2E26709CE9417E5FB45F
:104F200039D69139F43953838B5F849C3B28F9BD82
:104F3000FF97F81F0F9805DE8B112FEF1F6D0A5A90
:104F4000CF7E366DB709CB27663F464F2DEA5F9E71
:104F5000C7BA27757BF1E5EBF739073DEA92528A2C
:104F6000B15FFB6B085D8D1FA6F810111111813F19
:104F7000D561C119A0012ABF7DFEB157E31DC73E0F
:104F8000EB9C2B8AE6E55ABE7CD5CF5A3AD9E53D53
:104F9000B04F0008000000204C00000068480008E6
:104FA000FC4F00084C0000201C0600007848000858
:104FB00000000000000000000000000000000000F1
:104FC00000000000000000000000000000000000E1
:104FD0000000000000000000000000000000807FD2
:104FE00000000000000000000000000010000000B1
:0C4FF0000100000000127A000000000028
:0400000508000131BD
:00000001FF
