:020000040800F2
:10000000780A002079020008A73D0008AB380008F4
:10001000A53D00082906000811490008000000005D
:10002000000000000000000000000000AB3D0008E0
:100030002B06000800000000A93D0008CD3E000886
:10004000930200089302000893020008930200083C
:10005000930200089302000893020008930200082C
:10006000930200089302000893020008930200081C
:10007000930200089302000893020008930200080C
:100080009302000800000000F10400089302000839
:1000900093020008930200089302000893020008EC
:1000A000453F0008513F00089302000893020008F2
:1000B00093020008930200085D3F000893020008C5
:1000C00093020008930200089302000893020008BC
:1000D00093020008930200089302000893020008AC
:1000E000930200089302000893020008930200089C
:1000F0009302000893020008930200080000000029
:1001000000000000930200080000000093020008B5
:100110009302000800000000693F000893020008F5
:10012000930200089302000893020008930200085B
:100130009302000800000000000000009302000885
:100140009302000893020008000000000000000075
:10015000000000000000000000000000000000009F
:1001600000000000000000000000000093020008F2
:1001700093020008000000000000000000000000E2
:1001800000000000930200080000000000000000D2
:10019000000000000000000000000000000000005F
:1001A0000000000000000000930200089302000815
:1001B0009302000893020008930200080000000068
:1001C0000000000093020008000000000000000092
:1001D000930200089302000800F002F800F03CF8D7
:1001E0000AA090E8000C82448344AAF10107DA4592
:1001F00001D100F031F8AFF2090EBAE80F0013F0A8
:10020000010F18BFFB1A43F001031847D463000025
:10021000F4630000103A24BF78C878C1FAD85207B6
:1002200024BF30C830C144BF04680C607047000070
:100230000023002400250026103A28BF78C1FBD8EF
:10024000520728BF30C148BF0B6070471FB506F08A
:100250000AF91FBD10B510BD00F014F91146FFF7E3
:10026000F5FF05F00BFA00F032F903B4FFF7F2FFE7
:1002700003BC00F035F900000948804709480047F1
:10028000FEE7FEE7FEE7FEE7FEE7FEE7FEE7FEE746
:10029000FEE7FEE704480549054A064B70470000A3
:1002A000353F0008D901000878040020780A0020B2
:1002B000780600207806002053EA020C00F06980DE
:1002C0002DE9F04B4FF00006002B1FBFB3FA83F56A
:1002D00003FA05F424FA05F65E4012BF1643B2FA9B
:1002E00082F502FA05F4C5F120051EBF22FA05FCCD
:1002F00044EA0C04203556EA044C4FEA144418BF73
:10030000641C4FF000084FF00009904271EB030CA1
:1003100039D3002919BFB1FA81F701FA07F6B0FA0B
:1003200080F700FA07F6C7F120071EBF20FA07FC86
:1003300046EA0C062037B6FBF4FCA7EB0507103F96
:1003400007F01F0BCBF120060CFA0BFB2CFA06F67C
:1003500044BFB3460026202FA4BF5E464FF0000BDB
:100360005BEA060C08BF4FF0010B19EB0B09ABFB66
:10037000027C48EB0608C01B06FB02CC0BFB03CC3F
:1003800071EB0C01C1E70B46024641464846BDE809
:10039000F08B13B54FF000004FF00001AFF3008079
:1003A000BDE81C40704710B5203AC0F00B80B1E8A2
:1003B0001850203AA0E81850B1E81850A0E818509A
:1003C000BFF4F5AF5FEA027C24BFB1E81850A0E8A3
:1003D000185044BF18C918C0BDE810405FEA827CBD
:1003E00024BF51F8043B40F8043B08BF7047D207D4
:1003F00028BF31F8023B48BF11F8012B28BF20F875
:10040000023B48BF00F8012B70474FF0000200B5D7
:10041000134694469646203922BFA0E80C50A0E827
:100420000C50B1F12001BFF4F7AF090728BFA0E8D5
:100430000C5048BF0CC05DF804EB890028BF40F8A1
:10044000042B08BF704748BF20F8022B11F0804FE3
:1004500018BF00F8012B704770477047704710B500
:1004600000F008F8006810BD10B5044600F002F86E
:10047000046010BD00487047180400200048704711
:10048000180400207546FFF7F9FFAE4605006946DF
:10049000534620F00700854618B020B5FFF7FAFE56
:1004A000BDE820404FF000064FF000074FF0000875
:1004B0004FF0000B21F00701AC46ACE8C009ACE8F6
:1004C000C009ACE8C009ACE8C0098D46704710B55A
:1004D0000446AFF300802046BDE81040FFF7C5BEDC
:1004E00001491820ABBEFEE726000200704700005D
:1004F00010B5044800F0B6FFBDE81040024800F017
:10050000B1BF0000140100208001002070B5044636
:10051000006881688268C1F3400112F0010F28D0A1
:1005200039BB816801F00D01012914D18168124A9B
:100530001140891C816021680320086001F0F2FBF2
:10054000054612E001F0EEFB401B02280DD92068A1
:100550008068C00709D0E06D40F01000E065206EB3
:1005600040F001002066012070BD20688068C0074F
:10057000E8D1002070BD0000C0FFFF7FF8B5044641
:10058000002000902068816811F0010F41D181683E
:10059000214A11422ED18168D5432940491C8160EE
:1005A0001E48806800F0E07000020DD51C481D490F
:1005B0000068B0FBF1F0401C00EB4000800000E060
:1005C000401E00900028FBD101F0ACFB06461BE06A
:1005D000816811F0010F03D181682940491C8160B5
:1005E00001F0A0FB801B02280ED920680068C043E0
:1005F000C00709D0E06D40F01000E065206E40F0CB
:10060000010020660120F8BD20680168C943C907C0
:10061000DED10020F8BD00003F0000800003005044
:1006200058000020400D0300FEE7704718490A20DB
:10063000184B91ED011AD1ED060A91ED020A002244
:10064000D3ED001A521C824231EE811AD3ED011A09
:1006500071EEA00AD3ED021A31EE800AF0DB01EE52
:10066000900AF8EE611A81EE212A01EE100AB8EE26
:10067000411AC0EE811A00EE900A81ED012AF8EECF
:10068000600A80EE201AC1ED061A81ED021A704749
:100690001C0000205C00002072B6FEE71C491D4BC8
:1006A00001F10C02D1ED000A93ED010A70EEC00ACF
:1006B000C2ED000AD1ED010A93ED061A70EEC10AEF
:1006C000C2ED010AD1ED021AD3ED020A71EEE01A71
:1006D000C2ED021AD1ED001A71EEC01A9FED0E0A9A
:1006E00061EE801AC2ED031AD1ED011A31EEC11A82
:1006F00021EE001A82ED041A91ED021A71EE600AE1
:1007000020EE800A82ED050A18220C31FFF74BBE5D
:100710005C0000201C0000200AD7A33BF8B500268F
:100720000446009690F858000D4601280BD0012091
:1007300084F858002046FFF7E9FE0100E06D04D080
:1007400040F010002AE00220F8BD20F4885040F06C
:100750000200E06520688268134B1A4005F0804370
:100760001A4342F000428260104A20680EE0009B6B
:100770005B1C0093934209D3E06D20F0020040F02F
:100780001000E06584F858600120F8BD8368DB0F35
:10079000EDD1E06D20F0020040F00100E06584F84A
:1007A00058600846F8BD0000C0FFFF3F02DE0400AD
:1007B000704700002DE9F84F4FF000080446CDF8CF
:1007C00000800D4694F85820DFF8EC9361694746A5
:1007D0004046012A0AD00126F84A84F8586041B1FF
:1007E000296A012905D0A36EEBB129E00220BDE8FA
:1007F000F88F6868092838D1A96A4FF4785041B158
:100800002B6801F07C0100EA53400843E96A084381
:1008100002E0296800EA51402168CB6C1340034391
:10082000CB64606621E0C4E91971A96A286A31B114
:1008300001F07C01401E0843E96A084300E0401EC5
:1008400029682B79C1F3846103F01F0399400143A8
:10085000A06E401EA066636E43EA0103636604D186
:100860002068C16C11401943C164206803F02EF860
:1008700058B995F8250098B12068C16895F82620E8
:1008800021F4401141EA4251C160206803F026F88A
:100890008246206803F01AF85AEA00000DD0FBE007
:1008A00095F8260095F82410400540EA015120688B
:1008B000C26822F440121143E6E7A86A30B1E86A40
:1008C00020B195F8250001285ED003E095F82500B9
:1008D000012804D02068C16821F0007103E020687D
:1008E000C16841F00071C16095F83000012852D014
:1008F0002068016921F002010161AA682968206865
:10090000B2F1004F38D003F004F82068416921F0BB
:100910000041416120686969C268C2F3C1025200A6
:1009200091402A69042A44D000EB82002B68026EB1
:10093000DFF88CC203F0F84302EA0C020B431A43BF
:1009400042F00041016620682A69A96900EB820033
:10095000026E22F080720A430266297F22682869AB
:10096000012923D05FF0000102EB8000026E22F02B
:1009700000720A4302668FE0002202F0CAFF20687C
:10098000416941F00041C4E7E06D40F02000E065BE
:100990004FF00108A8E7D5E90D100143206802696E
:1009A00022F4FF7242F002021143A5E74FF00071FA
:1009B000DAE7002102F080FF400320684FF00001D9
:1009C00072D002F079FF90FAA0F0B0FA80F12868B6
:1009D00042036ED090FAA0F0B0FA80F0814204D1C8
:1009E00000221146206802F0ABFF0121206802F0CE
:1009F00063FF400320684FF001015DD002F05CFF0F
:100A000090FAA0F0B0FA80F12868420359D090FA29
:100A1000A0F0B0FA80F0814204D1002201212068C8
:100A200002F08EFF0221206802F046FF400320689A
:100A30004FF0020148D002F03FFF90FAA0F0B0FA68
:100A400080F12868420344D090FAA0F0B0FA80F018
:100A5000814204D100220221206802F071FF0321AB
:100A6000206802F029FF400320684FF0030133D0D3
:100A700002F022FF90FAA0F0B0FA80F12868420359
:100A80002FD090FAA0F0B0FA80F0814204D1002279
:100A90000321206802F054FF2068816811F0010FE3
:100AA00022D0B6E000E004E002F006FFC0F384616B
:100AB0008DE7C0F3846091E702F0FEFEC0F384612D
:100AC000A2E7C0F38460A6E702F0F6FEC0F38461FB
:100AD000B7E7C0F38460BBE702F0EEFEC0F38461C9
:100AE000CCE7C0F38460D0E72A7B296850F8B03F98
:100AF000C1F3120C23EA0C0302F0180C314A22FA5B
:100B00000CF20A4013430360E96849457ED1286826
:100B100041031CD090FAA0F1B1FA81F1491C01F017
:100B20001F0109294FEA403132D8002912D000BFF5
:100B300090FAA0F1B1FA81F101F1010101F01F0178
:100B400006FA01F609D100BFC0F3846109E0C0F3E1
:100B50008461E3E7C0F38461EEE790FAA0F1B1FAB3
:100B600081F101F1010101F01F0146EA816102D129
:100B7000C0F3846003E090FAA0F0B0FA80F000F1D6
:100B8000010000F01F0000EB400041EA00513AE094
:100B900000290ED090FAA0F1B1FA81F101F1010122
:100BA00001F01F0106FA01F60ED100BFC0F3846107
:100BB0000EE0C0F38461F1E700007F4000401004C4
:100BC00000F0FF03FFFF070090FAA0F1B1FA81F1F6
:100BD00001F1010101F01F0146EA816102D1C0F378
:100BE000846003E090FAA0F0B0FA80F000F1010018
:100BF00000F01F002B4A00EB400002EB005041EADE
:100C0000000141F00071AA68206800E001E002F0F4
:100C100080FE25482A68024240D024488168244B3F
:100C200001F0E0719A4202D0224B9A421BD10B0292
:100C300019D42268B2F1A04F30D1826841F400018A
:100C400022F0E0720A4382601B481C490068B0FB36
:100C5000F1F0801C00EB4000800000E0401E00909E
:100C60000028FBD11AE0164D164BAA4207D1CD0140
:100C700005D422689A4211D041F0807109E0124DEA
:100C8000AA420BD14A0209D422689A4206D041F402
:100C90008001826822F0E0720A43826084F8587012
:100CA0004046A4E5000020FE00000880000300503C
:100CB000000021C31000C09058000020400D030028
:100CC000000052C700010050000084CB30B54F49EE
:100CD0004F4C87B088427DD194ED040AD4ED030ACD
:100CE00030EE200A84ED040ADFED4A0AB5EEC00AB0
:100CF000F1EE10FA02D230EE200A06E010EE100AF1
:100D0000454A904203DD30EE600A84ED040A09682A
:100D100051F8800F00EE100A4048B8EE400A80ED0E
:100D2000000A90ED000ADFED3E0A70EE600A9FEDCA
:100D30003D0A60EE800AC0ED000A49689FED3A1A4C
:100D400000EE901A3949F8EE600AC0ED010AD0EDC4
:100D5000010A70EEC10A60EE800AC0ED010A09685E
:100D6000D1F880109FED321A00EE901AF8EE600A6A
:100D7000C0ED020AD0ED020A70EEC10A20EE800A30
:100D800080ED020A6846FFF789FC2448182269466C
:100D90002430FFF708FB214D05F12C000FC88DE82A
:100DA0000F0094ED050AD5E90923BCEEC00A05F150
:100DB000540110EE100AC0B204F008FC04F054FB19
:100DC000134984ED070AC4ED080A1C31684602F095
:100DD000EDFF00E010E01822694605F13C00FFF746
:100DE000E2FAD5E913013C35CDE9000195E80F00A1
:100DF00003F034F804F0BEFC2078002803D1FFF79C
:100E000015FC0120207007B030BD00001401002047
:100E10001C000020DB0FC940DB0FC9405C00002034
:100E200000E0FD446EFAB33C00A0FE4480010020C7
:100E30000000FD44704700002DE9F041044645489C
:100E4000806800F01F05206802F040FD08BB2168A3
:100E5000C868C96C00F0004011F4C07F00D190B1A7
:100E600094F85800012814D0012084F85800204636
:100E7000FFF784FB01004FF000020CD084F85820EB
:100E80000846BDE8F081E06D40F02000E0650120FB
:100E9000F7E70220F5E7E06DC00504D5206E20F0ED
:100EA0000800206600E02266E06D42F201039843EC
:100EB00040F48050E065284B20684FF0A0469842EF
:100EC00001D1374600E00746874200D01DB9E76DE3
:100ED00027F48017E7656027076084F858202068AA
:100EE000C268920203D5426842F480624260A069FF
:100EF00008282068426807D022F04002426020683B
:100F0000426842F0200206E022F02002426020689F
:100F1000426842F0400242602068984201D1324665
:100F200000E00246824209D045B1062D06D0072DC9
:100F300004D0E06D40F48010E065A1E7C26812F0D3
:100F4000007F9DD18268054B1A4042F00802826002
:100F500096E700000003005000010050C0FFFF7F33
:100F6000704770472DE9F047044690F858009CB050
:100F70000E464FF00009012815D0012084F85800D2
:100F800000251795189520684FF0A04840450ED1D0
:100F9000284F0097384602F0A1FC8246206802F0F4
:100FA0009DFC60B10EE002201CB0BDE8F087E06D52
:100FB00040F02000E06584F858500120F4E7BAF1D1
:100FC000000F09D0E06D40F02000E0654FF001090E
:100FD00084F858504846E7E71748326840F61F71D2
:100FE000002A826822F4604216D094F8383042EA2F
:100FF000433273681A438260D8F80820BB6802F055
:10100000010203F001031A43E2D1B36832681A43C4
:1010100083688B431A430BE08260D8F80820BB68D2
:1010200002F0010203F001031A43D1D182688A431E
:101030008260CDE700010050000300502DE9F84F19
:1010400000270446009790F85800DFF8E0930D461B
:10105000B846012811D0012684F85860206802F0B3
:1010600039FC60B1E06D40F02000E0655FF0010701
:1010700084F858803846BDE8F88F0220FBE7D5E9B0
:1010800000210C23206803EA91131844036B01F03C
:101090001F014FF01F0C0CFA01FCC2F3846223EA1B
:1010A0000C038A4013430363206802F013FC82465A
:1010B000206802F007FC5AEA00003CD1AA682968BF
:1010C0002068B2F1004F37D002F014FC206841696B
:1010D00021F00041416120686969C268C2F3C10220
:1010E000520091402A69042A31D000EB82002B681B
:1010F000026EDFF83CC303F0F84302EA0C020B4334
:101100001A4342F00041016620682A69A96900EB90
:101110008200026E22F080720A430266297F2268F2
:101120002869012910D0002102EB8000026E22F014
:1011300000720A4302667DE0002202F0DBFB2068B9
:10114000416941F00041C5E74FF00071ECE7002133
:1011500002F0ACFB400320684FF0000172D002F0B7
:10116000A5FB90FAA0F0B0FA80F1286842036ED097
:1011700090FAA0F0B0FA80F0814204D1002211462A
:10118000206802F0D5FB0121206802F08FFB4003AC
:1011900020684FF001015DD002F088FB90FAA0F0CA
:1011A000B0FA80F12868420359D090FAA0F0B0FA62
:1011B00080F0814204D100220121206802F0B8FBB6
:1011C0000221206802F072FB400320684FF0020108
:1011D00048D002F06BFB90FAA0F0B0FA80F12868DA
:1011E000420344D090FAA0F0B0FA80F0814204D1DA
:1011F00000220221206802F09BFB0321206802F0FC
:1012000055FB400320684FF0030133D002F04EFB42
:1012100090FAA0F0B0FA80F1286842032FD090FA3B
:10122000A0F0B0FA80F0814204D1002203212068AE
:1012300002F07EFB2068816811F0010F22D0ACE043
:1012400000E004E002F032FBC0F384618DE7C0F3FC
:10125000846091E702F02AFBC0F38461A2E7C0F347
:101260008460A6E702F022FBC0F38461B7E7C0F315
:101270008460BBE702F01AFBC0F38461CCE7C0F3E3
:101280008460D0E72A7B296850F8B03FC1F3120C84
:1012900023EA0C0302F0180C664A22FA0CF20A4008
:1012A00013430360E968494577D1286841031CD09E
:1012B00090FAA0F1B1FA81F1491C01F01F0109294E
:1012C0004FEA403132D8002912D000BF90FAA0F185
:1012D000B1FA81F101F1010101F01F0106FA01F6F5
:1012E00009D100BFC0F3846109E0C0F38461E3E782
:1012F000C0F38461EEE790FAA0F1B1FA81F101F157
:10130000010101F01F0146EA816102D1C0F384604E
:1013100003E090FAA0F0B0FA80F000F1010000F0D4
:101320001F0000EB400041EA005132E000290ED0DE
:1013300090FAA0F1B1FA81F101F1010101F01F0170
:1013400006FA01F606D100BFC0F3846106E0C0F3DF
:101350008461F1E790FAA0F1B1FA81F101F10101A4
:1013600001F01F0146EA816102D1C0F3846003E00D
:1013700090FAA0F0B0FA80F000F1010000F01F0038
:101380002D4A00EB400002EB005041EA000141F021
:101390000071AA68206802F0ADFA28482A68024263
:1013A0003FF466AE26488168264B01F0E0719A4210
:1013B00002D0254B9A421CD10B021AD42268B2F1FA
:1013C000A04F7FF455AE826841F4000122F0E07234
:1013D0000A4382601D481E490068B0FBF1F0401CC2
:1013E00000EB4000800000E0401E00900028FBD190
:1013F0003EE6184D184BAA4207D1CD0105D422680C
:101400009A42F5D041F0807109E0144DAA42EFD123
:101410004A02EDD422689A42EAD041F480018268FF
:1014200022F0E0720A43826022E6000000007F4062
:1014300000F0FF03FFFF0700000020FE000008800F
:1014400000030050000021C31000C090580000208D
:10145000400D0300000052C700010050000084CB83
:10146000704770472DE9F05F0446006806684568DC
:10147000DFF854B2DBF8080000F01F07B0070ED504
:10148000A8070CD5E06DC00603D4E06D40F4006001
:10149000E0652046FFF78CF9216802200860DFF83C
:1014A0002CA270074FF0A04801D5680703D430077D
:1014B00037D5280735D5E06DC00603D4E06D40F47C
:1014C0000070E065206802F00DFA20B320685045F6
:1014D00001D1424600E00246824208D03FB1052FCA
:1014E00005D0092F03D0504503D1414602E0C16821
:1014F00001E00146C96889040DD4016809070AD5CD
:1015000002F0E8F958B3E06D40F01000E065206E9D
:1015100040F0010020662046FFF7A2FF21680C2062
:101520000860B00601D5A80603D4700658D5680631
:1015300056D5E06DC00603D4E06D40F40050E06580
:101540002068C16C11F4C07F1AD00021894602F0D6
:10155000C9F902462068504514D1434613E020687B
:10156000416821F00C014160E06D20F48070E0657D
:10157000E06DC004CFD4E06D40F00100E065CAE743
:101580000121E3E70346834208D03FB1062F05D08F
:10159000072F03D0504503D1414602E0C16801E066
:1015A0000146C968B9F1000F14D08B0102D58AB188
:1015B0008A040FD4026852060CD589020AD402F0BC
:1015C00081F9E8B3E06D40F01000E065206E40F076
:1015D000010020662046FFF779FB21686020086043
:1015E00030060BD5280609D5E06D40F48030E06563
:1015F000204600F067F9216880200860F0050CD5CE
:10160000E8050AD5E06D40F40030E0652046FFF7BC
:10161000A7FC21684FF480700860B0050CD5A805C0
:101620000AD5E06D40F48020E0652046FFF799FC84
:1016300021684FF400700860F0062ED5E80600E03F
:1016400008E02AD5E06BD0B1AFB1DBF8080000F4B8
:10165000604013E02068416821F060014160E06D66
:1016600020F48050E065E06DC005B3D4E06D40F03B
:101670000100E065AEE72068C068C00750B1E06DCA
:1016800040F48060E065206E40F002002066204655
:10169000FFF7E7FE216810200860700512D5680585
:1016A00010D5E06D40F48040E065206E40F0080009
:1016B000206621684FF4806008602046BDE8F05F36
:1016C000FFF7B8BBBDE8F09F0003005000010050D9
:1016D000F8B54FF0000504002E46009502D0E06DED
:1016E00010B107E00120F8BD204600F0EDF82666B5
:1016F00084F8586020688168C1F3407119B181682D
:10170000684A1140816020688168C1F3007189B91D
:101710008168654A114041F08051816063486449A5
:101720000068B0FBF1F04000801C00E0401E00901B
:101730000028FBD120688168C1F3007141B9E16DD7
:1017400041F01001E165216E41F0010121660125A2
:1017500002F0C0F8E16DC90600D430B1E06D40F090
:101760001000E06501252846F8BDE06D20F480708A
:1017700040F00200E0652068806810F0010F11D190
:101780004FF0A04080684B4900F00100896801F0EB
:101790000101084306D148486168826822F47C123E
:1017A0000A438260E168E06B627F0843A16841EA16
:1017B0004231084394F8241040EA0140012904D141
:1017C000218D3E4A02EB41410843E16A29B101F40F
:1017D0007871226B014342EA01002268D168384BDC
:1017E00019400143D16020680169626B21F04061BA
:1017F00011430161206802F065F870BB207F94F806
:101800003810800340EA41022168C86844F20203AC
:1018100098431043C86020690028206801690AD0F5
:1018200041F480310161206850F8C01F22696FF3D4
:101830000D01114307E021F480310161206850F867
:10184000C01F6FF30D01016094F8400001280CD017
:101850002068016921F001010161606901282068A7
:10186000016B21F00F0111D013E0D4E911010843FD
:10187000D4E913121143084321680A6940F2FC734A
:101880009A43104340F001000861E6E7226A521EC5
:1018900011430163E06D20F0020040F00100E065BB
:1018A00061E70000C0FFFF5FC0FFFF7F580000201E
:1018B000400D030000010050000300500000FEFF37
:1018C0000740F0FF704700002DE9F04198B0044652
:1018D000142111A8FEF799FD44216846FEF795FDF5
:1018E0004FF40041206800258A03384F0326384C06
:1018F0004FF09048B0F1A04F10D0364B984261D1D4
:101900000F926846009100F0E5FB08B1FEF7C4FEB7
:101910003868401C3860012834D03BE00F9268469C
:10192000009100F0D7FB08B1FEF7B6FE3868401C06
:101930003860012807D1E06C40F40050E064E06CAE
:1019400000F400501690E06C40F00100E064E06CA0
:1019500000F001001690E06C40F00200E064E06CE2
:10196000139500F0020016900420CDE9110611A98C
:10197000404600F0ADF802201395CDE9110611A9FB
:10198000154815E0E06C40F40050E064E06C00F4B1
:1019900000501690E06C40F00100E064E06C13959C
:1019A00000F0010016904020CDE9110611A9404633
:1019B00000F08EF800221146122000F019FA1220D1
:1019C00000F008FA18B0BDE8F081000048000020DF
:1019D0000010024000010050000400482DE9F041D1
:1019E00004463848806800F01F05206801F072FF47
:1019F00018B102210846BDE8F08194F8580001288A
:101A00000CD0012084F858002046FEF7B7FD0100F5
:101A10004FF0000304D084F85830EBE70220EAE7E7
:101A2000E06D40F60162904340F48070E065264A24
:101A300020684FF0A046904201D1374600E00746AB
:101A4000874200D01DB9E76D27F48017E765E76D81
:101A5000FF0404D5276E27F00607276600E02366FB
:101A60001C27076084F858302068904201D1334623
:101A700000E00346834215D0A5B1052D12D0092DF3
:101A800010D0E36D43F48013E365904200D13046FB
:101A9000C0688001AED5E06D20F4005040F4805065
:101AA000E065A7E7C268920105D5E26D22F4005215
:101AB00042F48052E2658268044B1A40121D826033
:101AC00098E700000003005000010050C0FFFF7FB6
:101AD0002DE9F04FDFF82092002301260324A9F11D
:101AE000040B85B00F2709F1040AABF1040EFAE0EC
:101AF00006FA03F52A407CD091F804C00CF0030CE0
:101B0000BCF1010F02D0BCF1020F26D1D0F808C001
:101B1000CDF800C04FEA430C04FA0CF8CDF810C021
:101B2000DDF800C02CEA080CCDF800C0D1F80C801C
:101B3000DDF810C008FA0CF8DDF800C048EA0C081F
:101B4000C0F80880D0F804C02CEA050C0D79C5F364
:101B500000159D4045EA0C0545600D79ED43AD0744
:101B60000ED0C5684FEA430804FA08FC25EA0C05C4
:101B7000D1F808C00CFA08FC4CEA050CC0F80CC0FF
:101B80000D7905F00305022D16D1DD0800EB850C5B
:101B9000CDF808C0DCF820805D074FEAD56C07FA65
:101BA0000CF528EA05080D6905FA0CF5DDF808C002
:101BB00045EA0805CCF8205005684FEA430CCDF8FB
:101BC00008C004FA0CFC25EA0C0591F804C00CF0DE
:101BD0000308DDF808C008FA0CF848EA0508C0F860
:101BE00000804D6815F4403F7CD0444DD5F860C06E
:101BF00000E077E04CF0010CC5F860C02D6E23F0DA
:101C0000030C05F0010500953D4D65440295AD6856
:101C10004FEA837C4FEA1C7807FA08FC25EA0C059A
:101C2000B0F1904F06D0DFF8DCC0604505D14FF031
:101C3000010C20E04FF0000C1DE0DFF8CCC0604547
:101C400002D14FF0020C16E0DFF8C0C0604502D1AF
:101C50004FF0030C0FE0DFF8B8C0604502D14FF041
:101C6000040C08E0DFF8ACC0604502D14FF0050C71
:101C700001E04FF0060C0CFA08FC4CEA050C029D42
:101C8000C5F808C0D9F80050CC46D1F80480954377
:101C90005FEAC82800D51543CCF80050DAF80050A8
:101CA000D446D1F8048095435FEA882800D51543CF
:101CB000CCF80050DBF80050DC46D1F804809543A6
:101CC0005FEA883800D51543CCF80050DEF80050A4
:101CD000F446D1F8048095435FEAC83800D515432F
:101CE000CCF800505B1C0A6832FA03F57FF400AFB1
:101CF00005B0BDE8F08F000008040140001002406C
:101D0000000001400004004800080048000C0048A2
:101D100000100048001400480069084000D001206D
:101D20007047000001488068704700004C000020A8
:101D30000248816842681144816070474C0000206D
:101D400010B50024032000F073F80F2000F008F80D
:101D500008B1012401E000F025F8204610BD000084
:101D600070B50E4E05460024706898B14FF47A7134
:101D7000B1FBF0F00A490968B1FBF0F000F03AFE5F
:101D800040B9102D06D200222946501E00F030F82E
:101D9000356000E00124204670BD00004C000020AA
:101DA000580000200A4882B0016E41F0010101662E
:101DB000016E01F001010091816D41F0805181655A
:101DC000806D00F08050009002B000F07BB9000000
:101DD00000100240002809DB00F01F0201219140A1
:101DE0004009800000F1E020C0F8001170470000B9
:101DF000F0B40E4B1B680C46C3F30223C3F1070576
:101E0000042D00D90425191D072901D2002300E063
:101E1000DB1E012606FA05F1491E214099409E402D
:101E2000761E16403143F0BC02F08BBD0CED00E095
:101E3000064900F0070208684FF6FF03184040EA21
:101E40000220034A10430860704700000CED00E0D8
:101E50000000FA05F8B504004FF0000514D094F81E
:101E60003A00052810D094F83A0002280CD03448E3
:101E7000016E41F001010166006E00F0010000906A
:101E800094F83A0010B104E00120F8BD002084F875
:101E90003900204600F058F8A0682A4A4FF48071B3
:101EA000402836D0602834D020680368E66A23F0E2
:101EB000100333430360D4E901031843D4E9033624
:101EC00033431843237D012B00D000210843616A6E
:101ED0000843A16A0843218E40EAC14094F83410B7
:101EE00040EA0161206803681340194301602068DB
:101EF0008169002909DBD4E906121143226A83694A
:101F000023F03F031A431143816194F83A0090B1E2
:101F100014E020680368E66A23F01003334303608B
:101F2000D4E901031843267D2369012E00D0002146
:101F30000B431843CBE7012084F83A002846F8BD4C
:101F400000100240113E00E030B587B00446142175
:101F50006846FEF75AFA24681D4D00221D490323E6
:101F60004FF09040AC4209D1CC6C44F00104CC64F9
:101F7000C96C01F0010105910E210CE0144D2D1DDD
:101F8000AC4211D1CC6C44F00104CC64C96C01F0BA
:101F900001010591E021CDE9001302924FEA0D0104
:101FA000FFF796FD07B030BD094808308442F9D1EB
:101FB000C86C40F00200C864C86C694600F00200BA
:101FC00005900720CDE9000302920348E8E70000EE
:101FD000000301400010024000040048002138B115
:101FE00090F83A20052A03D090F83A20012A02D02E
:101FF0000121084670470268136843F0010313602B
:10200000042280F83A20F4E72B492C4B0A6832214D
:102010004A432B4940B1B0F5007F086829D020F42D
:10202000C06040F480602CE00868C0F341200228C2
:1020300004D051F8800F20F4807022E0D1F88000A5
:1020400020F48070C1F88000086820F4C06040F47B
:1020500000700860B2FBF3F0401C00E0401E4A69CB
:10206000520501D50028F9D1486940050AD5032059
:102070007047C0F34120022806D051F8800F40F489
:102080008070086000207047D1F8800040F48070B4
:10209000C1F88000086820F4C06040F40070086057
:1020A000B2FBF3F0401C00E0401E4A695205DBD54C
:1020B0000028F9D1D8E700005800002040420F0066
:1020C000007000400248816841F48041816070479F
:1020D000007000402DE9F8430446006800269D4D3D
:1020E00000035ED5A86D0027C00008D4A86D40F09D
:1020F0008050A865A86D012700F080500090DFF89F
:102100005892D9F8001041F48071C9F80010FFF717
:1021100009FE804606E000BFFFF704FEA0EB0800C2
:1021200002282BD8D9F80000C005F5D5D5F89000C5
:1021300010F4407014D0216C814211D0D5F8900079
:10214000D5F8901020F4407041F48031C5F890101B
:10215000D5F8901021F48031C5F89010C5F89000A2
:10216000C00711D0FFF7DEFD804641F2883907E055
:10217000FFF7D8FDA0EB0801494501D903260BE084
:10218000D5F890008007F3D5D5F89000216C20F4A5
:1021900040700843C5F890001FB1A86D20F0805032
:1021A000A8652078C00707D0D5F88800616820F0BE
:1021B00003000843C5F888002078800707D5D5F8C4
:1021C0008800A16820F00C000843C5F8880020783A
:1021D000400707D5D5F88800E16820F030000843B3
:1021E000C5F888002078000707D5D5F88800216950
:1021F00020F0C0000843C5F888002078800607D585
:10220000D5F88800616920F440600843C5F888006B
:102210002078400607D5D5F88800A16920F4405001
:102220000843C5F888002078000607D5D5F888004F
:10223000E16920F440400843C5F888002088C005C3
:1022400007D5D5F88800216A20F440300843C5F846
:1022500088002088800507D5D5F88800616A20F4B9
:1022600040200843C5F88800208840050FD5D5F8E0
:102270008800A16A20F440100843C5F88800A06ACD
:10228000B0F5801F03D1E86840F48010E860208832
:1022900000050FD5D5F88800E16A20F44000084316
:1022A000C5F88800E06AB0F5800F03D1E86840F413
:1022B0008010E8602088C0040FD5D5F88800216B15
:1022C00020F040700843C5F88800206BB0F1807F93
:1022D00003D1E86840F48010E86020884FF0006186
:1022E00080040ED5D5F88800626B20F04060104362
:1022F000C5F88800606B884203D1E86840F480101C
:10230000E860208840040ED5D5F88800A26B20F044
:1023100040601043C5F88800A06B884203D1E8688C
:1023200040F48010E860208800040FD5D5F88800BC
:10233000E16B20F040500843C5F88800E06BB0F135
:10234000805F03D1E86840F48030E8603046BDE843
:10235000F883000000100240007000402DE9F047B3
:102360000E4605004FF0000725D0DFF8AC81D8F805
:10237000000000F00F00B0420CD2D8F8001021F09D
:102380000F013143C8F80010D8F8000000F00F002A
:10239000B04210D12968614CC80741F2883A5AD03E
:1023A0006868DFF87C91032808D0022820682DD0C7
:1023B000400500282CDB0120BDE8F0872068800163
:1023C000F9D5E06800F00302E068C0F30310401C98
:1023D000032A19D0534A00BFB2FBF0F0E268C2F3FF
:1023E00006225043E268C2F34162521C5200B0FB25
:1023F000F2F0484517D9A06810F0F00F0CD088070C
:1024000011D5A86840B10EE0474AE5E78003D0E760
:1024100000F0B6F8484506D9A06820F0F00040F07A
:102420008000A0608027A068696820F0030008434E
:10243000A060FFF777FC814606E000BFFFF772FC63
:10244000A0EB090151453AD8A068696800F00C007A
:10245000B0EB810FF2D12868810714D5400703D56E
:10246000A06840F4E060A0602878000705D5A06867
:1024700020F4605040F4E060A060A068A96820F0FB
:10248000F000084304E0802F03D1A06820F0F000A2
:10249000A060D8F80010404601F00F01B14216D9F3
:1024A000016821F00F0131430160FFF73BFC074653
:1024B00007E000BFFFF736FCC11B514501D90320DF
:1024C0007AE7D8F8000000F00F00B042F2D1287887
:1024D000400705D5A068E96820F4E0600843A060E3
:1024E0002878000706D5A068296920F4605040EAE2
:1024F000C100A06000F044F8A1680C4AC1F30311C8
:10250000515C01F01F01C840094908600948006892
:10251000BDE8F047FFF724BC002002400010024055
:1025200000B4C4040024F40000366E01A264000864
:10253000580000204C0000200548064900688968C2
:10254000054AC1F30221515C01F01F01C8407047E8
:102550005800002000100240B264000805480649F7
:1025600000688968054AC1F3C221515C01F01F016E
:10257000C84070475800002000100240B2640008B4
:10258000184910B58868C0F381021748012A0BD09A
:102590008A68164BC2F38102022A06D08A68C2F307
:1025A0008102032A03D0002010BD184610BDCA685E
:1025B00002F00304CA68C2F30312521C032C02D0B7
:1025C000B0FBF2F001E0B3FBF2F0CA68C968C2F3F5
:1025D00006225043C1F34161491C4900B0FBF1F0B0
:1025E00010BD0000001002400024F40000366E010F
:1025F0002DE9F84304007AD02078F84DC00747D081
:10260000A868E96800F00C0001F003010C2802D072
:10261000082817D001E0032914D06068B0F5803F86
:1026200017D0B0F5A02F286817D020F4803028608C
:10263000286820F4802028606068E0B1FFF772FB12
:10264000064614E02868800322D560680028D2D0AE
:102650001EE0286840F48030EDE740F480202860D8
:10266000F7E700BFFFF75EFB801B642870D828687F
:102670008003F7D50CE0FFF755FB064605E000BFE9
:10268000FFF750FB801B6428F0D828688003F7D43C
:10269000207880074CD5A868E96800F00C0001F0AC
:1026A00003010C2802D004280DD001E002290AD031
:1026B000E068002828682BD040F480702860FFF77D
:1026C00031FB064619E02868400502D5E06800287D
:1026D00091D06868217C20F0FE4040EA016068608B
:1026E000BF480068FFF73CFB002800D120E072E102
:1026F000FFF718FB801B0228B8D828684005F7D5DB
:102700006868217C20F0FE4040EA016068600FE0CC
:1027100020F480702860FFF705FB064605E000BF47
:10272000FFF700FB801B0228A0D828684005F7D4DB
:102730002078000729D560690028D5F8940013D0C7
:1027400040F00100C5F89400FFF7ECFA064606E0F9
:1027500090E000BFFFF7E6FA801B022886D8D5F884
:1027600094008007F6D510E020F00100C5F8940031
:10277000FFF7D8FA064604E0FFF7D4FA801B0228D8
:1027800078D8D5F894008007F6D42078400761D532
:10279000A86D0026C00008D4A86D40F08050A86540
:1027A000A86D012600F0805000908E480168C90590
:1027B00011D40168804641F480710160FFF7B2FADC
:1027C000074604E0FFF7AEFAC01B022852D8D8F83B
:1027D0000000C005F6D5A068012815D00528D5F859
:1027E000900016D020F00100C5F89000D5F89000B8
:1027F00020F00400C5F89000A06841F28838B8B114
:10280000FFF790FA07460EE0D5F8900040F001007F
:10281000F0E740F00400C5F89000F5E7FFF782FA12
:10282000C11B414526D8D5F890008007F6D50CE0AD
:10283000FFF778FA074604E0FFF774FAC11B414539
:1028400018D8D5F890008007F6D41EB1A86D20F0F6
:102850008050A8652078800629D5A0690028D5F881
:10286000980013D040F00100C5F89800FFF75AFA1D
:10287000064606E075E000BFFFF754FA801B022809
:102880006FD8D5F898008007F6D510E020F0010049
:10289000C5F89800FFF746FA064604E0FFF742FA4B
:1028A000801B02285DD8D5F898008007F6D4E0692F
:1028B000F0B3A968C1F3810103295DD0022828681B
:1028C00020F08070286003D0FFF72CFA04464BE01C
:1028D000FFF728FA064604E0FFF724FA801B0228D7
:1028E0003FD828688001F7D4F4E908016FF00F029F
:1028F00002EB01110843218A5204490802EB4151BD
:10290000A26841EA02210843217D4FF07E42490836
:1029100002EB41610843217B40EAC160E968324A29
:1029200011400843E860286840F08070286000E0AB
:102930005EE0E86840F08070E860FFF7F3F9044675
:1029400005E000BFFFF7EEF9001B022809D8286850
:102950008001F7D54CE000BFFFF7E4F9001B022827
:1029600002D90320BDE8F88328688001F4D4E86820
:102970001E490840E8603BE00128F3D0E868226A7D
:1029800000F00301914226D1616A00F0F0020901D2
:10299000103991421FD1A26A00F4FE41B1EB022F1F
:1029A00019D194F82C2000F07841B1EBC26F12D10C
:1029B000218E00F4C00249084905A1F50011914299
:1029C00009D194F8341000F0C06049084906A1F11B
:1029D000007181420CD00120C4E7000000100240C9
:1029E0004C000020007000400C809F01FCFFEEFEB8
:1029F0000020B7E710B5401EB0F1807F01D3012061
:102A000010BD4FF0E02460610F21601701F099FFC5
:102A10000020A06107202061002010BD7047704792
:102A20007047000030B590F83C20012A42D00122C6
:102A300080F83C20CA688B6822F440721A434B68C5
:102A400022F480621A430B6822F400621A430B6975
:102A500022F480521A434B6922F400521A430B6B42
:102A600022F480421A430B8B22F4702242EA034282
:102A7000CB6922F080521A430F4D03680024AB4209
:102A800002D00E4DAB4210D10D8D22F4700242EAFD
:102A900005520D6A22F080722A434D6A22F00072BC
:102AA0002A43C96A22F000520A435A6480F83C4023
:102AB000002030BD022030BD002C01400034014018
:102AC0007047704770B588B00E46040004D094F883
:102AD0003D00002518B107E0012008B070BD84F862
:102AE0003C50204600F05CF8022084F83D00211D97
:102AF000206801F03FFAB36831680322206801F0D2
:102B000047FC2068816921F00C018161206881699E
:102B10007268114381612068416841F08001416021
:102B2000206881681B4A114081602068816841F0FB
:102B30004001816020688168174A114081602068E7
:102B4000816841F004018160702005950495069527
:102B5000039502950090F06801906946206801F0A5
:102B6000CFFA206841680D4A1140416020684168F1
:102B700041F050014160012084F8480084F83E0093
:102B800084F83F0084F8440084F8450084F83D0050
:102B90000020A2E78FFFCFFFF8FFFEFF8FFFFFFDB2
:102BA00030B587B0044614216846FDF72EFC204955
:102BB0002068884239D11F48816D41F00401816548
:102BC000816D01F004010591C16C41F00101C16406
:102BD000C16C01F001010591C16C41F00201C164B9
:102BE000C06C022500F0020005904FF4C050009028
:102BF0000024CDE901540A20CDE9034069464FF095
:102C00009040FEF765FFE8010090CDE90154694668
:102C10000948CDE90345FEF75BFF002202211E2093
:102C2000FFF7E6F81E20FFF7D5F807B030BD00002B
:102C300000080040001002400004004810B590F861
:102C40003E30044690F83F2090F8441090F845003C
:102C5000012B05D1012A03D1012901D1012801D07D
:102C6000012010BD022084F83E0084F83F0084F863
:102C7000440084F845002068C16841F00201C16049
:102C800001220021206801F0D3F910492068884210
:102C90000ED0B0F1804F0BD00D49884208D00D49BD
:102CA000884205D00C49884202D00C49884207D19D
:102CB00081680B4A1140062906D0B1F5803F03D048
:102CC000016841F001010160002010BD002C0140AD
:102CD0000004004000080040003401400040014072
:102CE0000700010070470000F0B590F83C20012A71
:102CF0003AD0012580F83C50022280F83D2003683C
:102D00005A689C68194E1A4FB34201D0BB4204D195
:102D100022F4700C4A6842EA0C02DFF858C002EA5A
:102D20000C02D1F800C04CEA020CC3F804C00268DF
:102D3000B2420DD0B2F1804F0AD00F4B9A4207D069
:102D40000E4B9A4204D0BA4202D00D4B9A4204D1A3
:102D5000896824F080031943916080F83D50002178
:102D600080F83C100846F0BD0220F0BD002C014068
:102D7000003401408FFFFFFD0004004000080040C8
:102D80000040014010B50446022249B104290ED08A
:102D9000082913D094F84700012816D0012010BD4F
:102DA00094F844000128F9D184F844200FE094F805
:102DB00045000128F2D184F8452008E094F8460047
:102DC0000128EBD184F8462001E084F84720042252
:102DD000206801F03AF92068416C41F400414164F7
:102DE0001049206888420ED0B0F1804F0BD00E49B8
:102DF000884208D00D49884205D00D49884202D04A
:102E00000C49884207D181680B4A1140062906D037
:102E1000B1F5803F03D0016841F00101016000205D
:102E200010BD0000002C01400004004000080040DC
:102E3000003401400040014007000100704710B518
:102E4000040003D094F83D0010B107E0012010BD4C
:102E5000002084F83C00204600F022F8022084F88C
:102E60003D00211D206801F085F8012084F848000C
:102E700084F83E0084F83F0084F8400084F8410064
:102E800084F8420084F8430084F8440084F8450044
:102E900084F8460084F8470084F83D00002010BD07
:102EA00008B500680B49884212D10B48816D41F08A
:102EB00010018165806D002200F010000090114625
:102EC0003620FEF795FFBDE808403620FEF782BFAA
:102ED00008BD0000001000400010024090F83D10B6
:102EE000012901D001207047022180F83D100068BF
:102EF0000F4988420ED0B0F1804F0BD00D49884267
:102F000008D00D49884205D00C49884202D00C49AE
:102F1000884207D181680B4A1140062906D0B1F5D5
:102F2000803F03D0016841F001010160002070473B
:102F3000002C014000040040000800400034014023
:102F4000004001400700010090F83D10012901D028
:102F500001207047022180F83D100168CA6842F0E4
:102F60000102CA600068104988420ED0B0F1804F5B
:102F70000BD00E49884208D00D49884205D00D4932
:102F8000884202D00C49884207D181680B4A11401F
:102F9000062906D0B1F5803F03D0016841F0010158
:102FA0000160002070470000002C01400004004038
:102FB00000080040003401400040014007000100CB
:102FC00070B53D492DED028B884271D100213A4800
:102FD00000F01DFB00EE100ADFED390A3748B8EEAD
:102FE000400A9FED3B8A3C4D80ED000A80EE201A9E
:102FF000DFED340A35484FF4807180EE810ADFED51
:10300000320A80EE201AF3EE0E0A20EE200AC0EEFD
:10301000080A80ED001A2F48C0ED000A2846FEF786
:103020007BFE2E4C802120702846FEF775FE21780D
:1030300041EA4000207040212846FEF76DFE2178CD
:1030400041EA8000C0B22649207005280CD004282F
:103050000DD006280ED002280FD0032810D001284A
:1030600011D091ED000A12E09FED1E0A0DE09FEDD8
:103070001E0A0AE09FED1D0A07E09FED1D0A04E00D
:103080009FED1C0A01E09FED1C0A81ED000AB5EEE0
:10309000C00AF1EE10FA02D230EE080A06E010EE95
:1030A000100A164A904203DD30EE480A81ED000A0C
:1030B000BDEC028B70BD0000EC020020400000203F
:1030C0000050434A920A863F00401C4628000020D8
:1030D000DB0FC9404400002000040048000000202D
:1030E0002C00002058A08B40FC22AD40A0A5CE4073
:1030F0004528F04075D50841C7961941DB0FC940F6
:103100002DE9F04104460068C66805694FF00007E4
:10311000A90713D5B10711D5F91E01610120207748
:10312000206880698007204602D0FFF749FF04E04D
:1031300000F002F9204600F0E9F92777680716D574
:10314000700714D521686FF0040008610220207711
:103150002068806910F4407F204602D0FFF730FFDE
:1031600004E000F0E9F8204600F0D0F927772807BE
:1031700015D5300713D521686FF0080008610420C9
:1031800020772068C0698007204602D0FFF718FF2B
:1031900004E000F0D1F8204600F0B8F92777E806FF
:1031A00016D5F00614D521686FF0100008610820CC
:1031B00020772068C06910F4407F204602D0FFF7D6
:1031C000FFFE04E000F0B8F8204600F09FF92777F2
:1031D000E80708D0F00706D021686FF00100086109
:1031E000204600F013FA280601D4A80408D53006BA
:1031F00006D521686FF4025008612046FFF70FFCE6
:10320000E80508D5300606D521686FF4807008619E
:103210002046FFF703FC680608D5700606D521682E
:103220006FF040000861204600F006FAA80608D5B5
:10323000B00606D521686FF0200008612046FFF730
:10324000EFFBE80208D5F00206D521686FF4801084
:1032500008612046FFF735FCA80208D5B00206D564
:1032600021686FF4001008612046FFF729FC68020E
:1032700008D5700206D521686FF4800008612046E9
:10328000FFF730FD28020AD5300208D521686FF417
:10329000000008612046BDE8F041FFF7CFBDBDE862
:1032A000F0810000F0B587B0044614216846FDF7B0
:1032B000ACF81E492068884236D11D48C16C41F0E7
:1032C0000201C164C16C01F002010591C16C41F0C1
:1032D0000101C164C06C022500F0010005904FF4AB
:1032E000C04000900024CDE901540626114FCDE9DD
:1032F000034669463846FEF7EBFBA8030090CDE98C
:1033000001540420CDE9034069463846FEF7E0FB4E
:103310004FF4E0600090CDE90154CDE903466946E1
:103320004FF09040FEF7D4FB07B0F0BD002C0140F9
:103330000010024000040048704770B5044690F841
:103340003C0000260D4601280BD0012084F83C00EB
:103350000C2A4AD007DC82B1042A20D0082A06D1E0
:1033600031E0022070BD102A53D0142A63D0012608
:10337000002084F83C00304670BD206800F072FEEA
:103380002068816941F0080181612068816921F02C
:1033900004018161206881692A69114311E0206874
:1033A00000F0AEFE2068816941F40061816120680F
:1033B000816921F480618161206881692A6941EA1B
:1033C00002218161D4E7206800F0E2FE2068C16933
:1033D00041F00801C1612068C16921F00401C161A7
:1033E0002068C1692A69114311E0206800F018FFC4
:1033F0002068C16941F40061C1612068C16921F49C
:103400008061C1612068C1692A6941EA0221C16104
:10341000AEE7206800F04CFF2068016D41F0080124
:1034200001652068016D21F0040101652068016DCE
:103430002A69114311E0206800F072FF2068016DD5
:1034400041F4006101652068016D21F4806101652E
:103450002068016D2A6941EA0221016588E710B5FB
:10346000040003D094F83D0010B107E0012010BD26
:10347000002084F83C00204600F022F8022084F866
:103480003D00211D206800F075FD012084F84800F2
:1034900084F83E0084F83F0084F8400084F841003E
:1034A00084F8420084F8430084F8440084F845001E
:1034B00084F8460084F8470084F83D00002010BDE1
:1034C00008B500680F4988421AD10F48016E41F4CF
:1034D00000610166006E002200F400600090114659
:1034E0001820FEF785FC1820FEF774FC002201214D
:1034F0001920FEF77DFCBDE808401920FEF76ABCE4
:1035000008BD0000002C0140001002407047000080
:1035100030B50446022269B1042912D0082917D017
:103520000C291CD0102921D094F84300012824D064
:10353000012030BD94F83E000128F9D184F83E20E6
:103540001DE094F83F000128F2D184F83F2016E0F6
:1035500094F840000128EBD184F840200FE094F863
:1035600041000128E4D184F8412008E094F84200A9
:103570000128DDD184F8422001E084F843200122B3
:10358000206800F055FD194B20681949194A9842E6
:1035900009D0884207D0904205D0174DA84202D0EA
:1035A000164DA84203D1456C45F40045456420689A
:1035B00098420CD0B0F1804F09D0114B984206D000
:1035C000104B984203D0884201D0904207D18168C5
:1035D0000D4A1140062906D0B1F5803F03D001689D
:1035E00041F001010160002030BD0000002C0140CD
:1035F00000340140004001400044014000480140C7
:103600000004004000080040070001007047024627
:10361000002041B1042909D008290AD00C2901D180
:103620001068006C70471068406B70471068806BC2
:1036300070471068C06B7047704790F8841001297C
:1036400018D0012180F884102421C0F88810016866
:103650000A680B6823F001030B6022F0005100227E
:103660004266036819602021C0F8881080F8842021
:10367000104670470220704770B5044690F88400E9
:1036800001281DD0012084F884002420C4F888007B
:1036900020680568026822F00102026020688268E2
:1036A00022F060620A438260204600F0A7FE206894
:1036B00005602020C4F88800002084F8840070BDD4
:1036C000022070BD70B5044690F8840001281DD01A
:1036D000012084F884002420C4F88800206805684C
:1036E000026822F0010202602068826822F06042D3
:1036F0000A438260204600F081FE20680560202099
:10370000C4F88800002084F8840070BD022070BDD9
:1037100010B5040003D0D4F8880010B107E00120F0
:1037200010BD002084F88400204600F027F82420F3
:10373000C4F888002068016821F001010160A06AD6
:1037400010B1204600F07CFE204600F05DFF01280D
:10375000E6D02068416821F490414160206881688A
:1037600021F02A0181602068016841F001010160B7
:103770002046BDE8104000F0C7BE000010B598B06C
:103780000446142111A8FCF740FE44216846FCF7CA
:103790003CFE17492068884227D10420002400906D
:1037A00003946846FEF796FC08B1FCF775FF1148D4
:1037B000816D41F480218165816D01F48021169134
:1037C000C16C41F00201C164C06C11A900F002009B
:1037D00016904FF4406011900220CDE912040720AA
:1037E000CDE914400448FEF773F918B010BD00008D
:1037F0000048004000100240000400482DE9F84352
:103800000446D0F88800984616460D46202802D077
:103810000220BDE8F883A5B19EB10020C4F8900055
:103820002120C4F888001834FEF77CFAA687814668
:10383000E68754F8100C2027183CB0F5805F02D0C2
:1038400003E00120E5E7206910B12E46002510E0D5
:1038500000260EE08021204601F010F8C0B9DEB14C
:1038600016F8010B21688862B4F85600401EA4F8CF
:103870005600B4F856004B464FF00002CDF80080D9
:103880000028E7D14FF04001204600F0F7FF40B19B
:10389000C4F888700320BCE735F8020BC0F30800B9
:1038A000E0E7C4F888700020B3E7FEE700EB810092
:1038B000006E00F0F840704700EB8100006E00F0F1
:1038C000F84070478068C0F3C00070478068C0F35C
:1038D000C00070478068C0F3800070478068C0F304
:1038E00080007047C06810F4406F01D0002070471E
:1038F00001207047042303EAD15310B518444369EB
:10390000C1F3045107248C40A3438A40134343610D
:1039100010BD042303EAD15310B518444369C1F321
:10392000045107248C40A3438A401343436110BDD4
:1039300000EB8100016E21F00041114301667047E8
:1039400000EB8100016E21F00041114301667047D8
:103950002DE9F0419AB000241794189420210FA863
:103960001994FCF752FD3C216846FCF74EFD3248A5
:103970004FF0A041042501604FF40021C0E901147B
:1039800085614FF00108C460C0E9044804774477BA
:10399000C0F8208080F82440C462046380F8384076
:1039A000C46380F84040FDF793FE08B1FCF774FE55
:1039B00017A921481794FDF7D5FA08B1FCF76CFE5A
:1039C0001E4E10A906207F270F9681E89100CDE9B1
:1039D00013540FA91848FDF731FB08B1FCF75CFE42
:1039E0000920CDE9006002200890CDE9045484202C
:1039F000CDE902870A908DF8244080208DF825407B
:103A00000B908DF826408DF8304069460A48FCF747
:103A1000D1FE08B1FCF740FE0948009040F20F10BB
:103A2000019069460448FCF7C5FE002801D0FCF768
:103A300033FE1AB0BDE8F081140100200800900C9C
:103A40000010603270B590B03C216846FCF7DDFC98
:103A50001E481D4900240160C902C0E90114C46068
:103A600004260461C0E90546047744770125056210
:103A700080F8244080F83840C46380F84040FDF767
:103A800027FE08B1FCF708FE114800900920CDE997
:103A900001057F2008950594CDE9030684200A904E
:103AA0008DF8244080208DF825400B908DF826401D
:103AB0008DF8304069460548FCF77CFE002801D0AF
:103AC000FCF7EAFD10B070BD00010050800100203D
:103AD0000800900C0D4808B5C16C41F02001C1648C
:103AE000C16C01F020010091C16C41F00101C16481
:103AF000C16C01F001010091C16C41F00201C1648F
:103B0000C06C00F00200009008BD000000100240F0
:103B10000B4810B509490160002141608160C16016
:103B2000016101758161C162FEF794F9002803D03B
:103B3000BDE81040FCF7B0BD10BD0000000301401F
:103B4000EC0100200B4810B50949016000214160DB
:103B50008160C160016101758161C162FEF77AF91E
:103B6000002803D0BDE81040FCF796BD10BD000052
:103B700004030140280200200B4810B509490160E8
:103B8000002141608160C160016101758161C16294
:103B9000FEF760F9002803D0BDE81040FCF77CBDBB
:103BA00010BD0000080301406402002010B598B069
:103BB0000024149415941C2168461694FCF725FCE7
:103BC000342107A8FCF721FC34483349C0E900142C
:103BD0002021816041F63F71C1604FF48071016125
:103BE0000121C0E90514FFF73AFC08B1FCF754FDC8
:103BF0001494159414A929481694FFF775F808B180
:103C0000FCF74AFD6020CDE900040294039404947B
:103C100005940022694621480694FFF78EFB08B1FF
:103C2000FCF73AFD042269461C48FFF786FB08B101
:103C3000FCF732FD082269461848FFF77EFB08B101
:103C4000FCF72AFD7020009041F63E7001900C2296
:103C500069461248FFF771FB08B1FCF71DFD079498
:103C6000089409944FF400500A94CDE90B400D9448
:103C700000030E94CDE90F401194129407A9074850
:103C80001394FEF7CFFE08B1FCF706FD0348FFF7DB
:103C900009FB18B010BD0000002C0140A00200205C
:103CA00010B588B000241348059406940394049436
:103CB000009401940E49029401603121C0E901147D
:103CC0004FF6FF71C0E9031403A98461FEF7FAFE01
:103CD00008B1FCF7E1FC50200090694602940548C9
:103CE000FFF702F8002801D0FCF7D6FC08B010BDA1
:103CF00000080040EC0200203EB500240E4800946D
:103D000001940C490294C0E9001441F63F71C0E9E6
:103D100002418461FFF793F808B1FCF7BDFC009401
:103D2000694605480294FEF7DFFF002801D0FCF742
:103D3000B3FC3EBD0010004038030020184810B509
:103D4000164901604FF4E1314160002181600C228D
:103D5000C160C0E904128161C16101624162816296
:103D6000FFF7D6FC08B1FCF797FC00210C48FFF7E1
:103D7000A9FC08B1FCF790FC00210948FFF77CFC86
:103D800008B1FCF789FC0648FFF757FC002803D070
:103D9000BDE81040FCF780BC10BD000000480040AA
:103DA00084030020FEE7FEE77047704730B50C46FD
:103DB0002DED068B87B00546B0EE080A91ED009A0E
:103DC00000F01FFFF6EE009AD4ED010A20EE290A5A
:103DD000BEEE008A60EE208A94ED000A40EE088A6A
:103DE000B0EE080A00F00DFFD4EC020A20EE290A1A
:103DF00020EE888AF0EE680A00EE418AB0EE490AA9
:103E000000F016FEF0EE480A00F012FEB0EE40AAF6
:103E1000F0EE680AB0EE490A00F02EFEF0EE480A15
:103E200000F02AFEF0EE400A18223AEE200A694617
:103E3000284660EE290A39EE600A8DED030A38EE55
:103E4000E00A8DED040A38EE600A8DED050AFCF7F4
:103E5000AAFA07B0BDEC068B30BD00000FB4B3EE7C
:103E6000080ADDED030A9DED042A174B80EE801A47
:103E7000F6EE000A71EE201A9FED121A61EE811A19
:103E8000FDEEE11A11EE901AC2EE001A71EEA01AC0
:103E900061EE811AFDEEE11A11EE900ADDED051AD0
:103EA000196081EE802A32EE200A20EE010ABDEE72
:103EB000C00A10EE102A191D0860081D026004B027
:103EC000704700000000FA45342C0140FDF730BF78
:103ED00010B594B038216846FCF797FA14210EA863
:103EE000FCF793FA0020FEF78FF801200090000401
:103EF000019002200324CDE907042821CDE90A100E
:103F00000C900D9009946846FEF772FB08B172B6EA
:103F1000FEE70F20CDE90E040020109011901290C2
:103F200004210EA8FEF71AFA002801D072B6FEE7A7
:103F300014B010BD0248016841F47001016070477F
:103F400088ED00E00148FFF7DBB80000A002002088
:103F50000148FFF7D5B80000A00200200148FFF794
:103F6000CFB80000EC0200200148FFF7C9B80000FC
:103F7000380300202DE9F0430268264B264D274EDA
:103F8000274C4FF08049984207D0484505D0A842B9
:103F900003D0B04201D0A04203D122F070074A689A
:103FA0003A43204FDFF880C0DFF8808098420DD080
:103FB00048450BD0A84209D0B04207D0A04205D056
:103FC000B84203D0604501D0404503D122F440758A
:103FD000CA682A434D6922F080022A4302608A6837
:103FE000C2620A688262984207D0A04205D0B842F5
:103FF00003D0604501D0404501D109690163012129
:1040000041610169C90703D0016921F00101016122
:10401000BDE8F083002C014000040040000800408F
:10402000003401400040014000440140004801408C
:1040300010B501F01F030121046A99408C4304620A
:10404000016A9A401143016210BD10B501F00F03DF
:104050000421046A99408C430462016A9A40114326
:10406000016210BD2DE9F043056A026A22F00102E7
:104070000262436882691C4C25F0020522400C68EC
:1040800022F0030214438A68194E2A43174D194F30
:10409000DFF864C0DFF86490A84207D0B04205D0D2
:1040A000B84203D0604501D0484506D122F0080847
:1040B000CA6842EA080222F00402A84207D0B042CD
:1040C00005D0B84203D0604501D0484505D14D69BF
:1040D00023F440731D438B692B434360846149681B
:1040E00041630262BDE8F0838FFFFEFF002C0140B8
:1040F00000340140004001400044014000480140BC
:10410000F0B5056A026A22F0100202624268836911
:10411000194C1B4E23400C6823F4407343EA0424DB
:1041200025F020038D6843EA0513144DA84201D001
:10413000B04206D1CF6823F0800343EA071323F08F
:104140004003A8420AD0B04208D00E4DA84205D084
:104150000D4DA84202D00D4DA84207D14D6922F461
:10416000406242EA85028D6942EA850242608461CA
:10417000496881630362F0BDFF8FFFFE002C0140A0
:10418000003401400040014000440140004801402B
:10419000F0B5056A026A22F4807202624368C2695D
:1041A000194C1B4E22400C6822F00302144325F4E4
:1041B00000728D6842EA0522144DA84201D0B04237
:1041C00006D1CF6822F4006242EA072222F480621C
:1041D000A8420AD0B04208D00E4DA84205D00E4DDC
:1041E000A84202D00D4DA84207D14D6923F4405397
:1041F00043EA05138D6943EA05134360C4614968C6
:10420000C1630262F0BD00008FFFFEFF002C014081
:10421000003401400040014000440140004801409A
:10422000F0B5056A026A22F4805202624268C369EC
:10423000194C1B4E23400C6823F4407343EA0424BA
:1042400025F400538D6843EA0533144DA84201D08C
:10425000B04206D1CF6823F4004343EA073323F486
:104260008043A8420AD0B04208D00E4DA84205D0E3
:104270000D4DA84202D00D4DA84207D14D6922F440
:10428000404242EA85128D6942EA85124260C46169
:10429000496801640362F0BDFF8FFFFE002C0140FE
:1042A000003401400040014000440140004801400A
:1042B00030B5056A026A22F4803202624268036DF8
:1042C000114C23400C681C4325F400330D8943EA4C
:1042D00005430E4DA8420BD00D4DA84208D00D4D00
:1042E000A84205D00C4DA84202D00C4DA84204D1E2
:1042F0004D6922F4803242EA052242600465496831
:104300008164036230BD00008FFFFEFF002C01407E
:104310000034014000400140004401400048014099
:1043200030B5046A026A22F4801202624268036DA8
:10433000114D24F400142B400D6843EA05230D8928
:1043400044EA05540D4DA8420BD00D4DA84208D0AB
:104350000C4DA84205D00C4DA84202D00B4DA842EE
:1043600004D14D6922F4802242EA8522426003652D
:104370004968C164046230BDFF8FFFFE002C01401C
:104380000034014000400140004401400048014029
:1043900070B5056A046A24F0010404628469124E4F
:1043A000B0420ED0B0F1804F0BD0104EB04208D0CA
:1043B0000F4EB04205D00F4EB04202D00E4EB0426A
:1043C00003D124F00304144301E044F001041A076C
:1043D00024F0F00444EA126225F00A0301F00A0115
:1043E00019438261016270BD002C0140000400404D
:1043F00000080040003401400040014030B5416EEB
:10440000B9B1026891689268C1F342610B4B520FD7
:104410009C5CE50003F10804A25CB5FBF2F2A0F895
:104420006A205A5C615CD200B2FBF1F1A0F868101E
:1044300030BD0121A0F86A10F8E70000926400087E
:1044400090F82810090706D501684A68836B22F4A2
:1044500000421A434A6090F82810C90706D0016844
:104460004A68C36A22F400321A434A6090F828105E
:10447000890706D501684A68036B22F480321A4323
:104480004A6090F82810490706D501684A68436BCE
:1044900022F480221A434A6090F82810C90606D5F3
:1044A00001688A68C36B22F480521A438A6090F8CC
:1044B0002810890606D501688A68036C22F4005228
:1044C0001A438A6090F82810490611D501684A6895
:1044D000436C22F480121A434A60416CB1F5801F8C
:1044E00006D101684A68836C22F4C0021A434A600C
:1044F00090F82810090606D501684A68C06C22F4B5
:10450000002202434A6070472DE9F8430026044622
:10451000C0F89060FDF706FC8046206800684FF008
:10452000200500076FF07E4713D54346002229047B
:104530002046009700F0A2F958B1216851E8000F19
:1045400020F0800041E80002002AF6D1C4F888502B
:1045500021E020680068400722D5434600224FF43E
:1045600080012046009700F089F9C8B1216851E820
:10457000000F20F4907041E80002002AF6D1206874
:10458000083050E8001F21F0010140E80012002A25
:10459000F5D1C4F88C5084F884600320BDE8F8831A
:1045A000C4F88850C4F88C5044F86C6F6660267666
:1045B0000020F3E710B5026852E8001F21F4907163
:1045C00042E80013002BF6D10E4B0268083252E885
:1045D000001F194042E80014002CF6D1C16E0129D9
:1045E00008D1016851E8002F22F0100241E80023B1
:1045F000002BF6D12021C0F88C100021C166416744
:1046000010BD0000FEFFFFEF2DE9F04104460168F8
:1046100080682269E3691043626900251A431043E8
:10462000DFF82CC20A688B4B1A4002430A602068EC
:104630004168E26821F44051114341602168A0695A
:10464000614501D0226A10438A68834B1A400243B5
:104650008A602068C16A626A21F00F011143C16259
:104660007E4923687E488B420DD1D0F8880010F037
:10467000030006D0012855D0022842D003283FD19C
:1046800052E001203DE077498B420BD1D0F8880001
:1046900010F00C0035D0042833D0082840D00C2866
:1046A0002ED141E070498B420BD1D0F8880010F038
:1046B000300026D0102835D0202831D030281FD106
:1046C00032E06A498B420BD1D0F8880010F0C0006C
:1046D00017D0402826D0802822D0C02810D123E02F
:1046E00063450DD1D0F8880010F4406009D0B0F5D2
:1046F000806F17D0B0F5006F12D0B0F5406F13D0B7
:1047000010205B495B4F00264FF4004263453BD1CC
:1047100060B1022813D004280BD0082872D10DE014
:104720000220EEE70420ECE70820EAE7FDF704FFAB
:1047300001E0FDF725FF010001D17CE01146606A30
:1047400037F810206768B1FBF2F007EB47038342AC
:1047500070D8B0EB073F6DD8002308461946FBF729
:10476000ABFD090241EA106102027808101871419C
:104770003A460023FBF7A0FD3F4AA0F54071914265
:1047800058D82168C86056E0E3694FF6EF78934245
:104790002CD109284ED2DFE800F00508114D0D4D4F
:1047A0004D4D1000FDF7C8FE01E0FDF7D7FE0100FA
:1047B00004D140E0FDF7E4FEF9E71146606A37F8FE
:1047C0001000B1FBF0F04100606801EB5001B1FB5B
:1047D000F0F0A0F1100141452CD84FF6F0710140E6
:1047E000C0F3420001432068C16024E0092821D2BF
:1047F000DFE800F0050912200E2020201100FDF74F
:104800009BFE02E016E0FDF7A9FE010004D112E0D4
:10481000FDF7B6FEF9E71146606A37F81000B1FB04
:10482000F0F1606801EB5001B1FBF0F0A0F1100174
:1048300041450AD901250120A4F86A0024F8680F2F
:104840002846E6602661BDE8F08180B299E7000065
:1048500000800040F369FFCFFFF4FF1100380140F2
:10486000001002400044004000480040004C00405E
:104870000024F4007A640008FFFC0F002DE9F047E3
:10488000994617460D4604464FF00008089E33E04F
:10489000701C31D0FDF746FAA0EB0900B04218D8E1
:1048A000BEB120680168490726D5802D24D0402D4F
:1048B00022D0C169C94309070DD4082505622046E5
:1048C000FFF778FEC4F8905084F884800120BDE89A
:1048D000F0870320FBE7C069C04300050CD42168C2
:1048E0004FF4006008622046FFF764FE2020C4F801
:1048F000900084F88480ECE72068C06935EA000005
:1049000004D00020B842C3D00020E0E70120F9E73E
:10491000FEE703B401984100009850EAC12018BF97
:1049200004204A0D18BF40F0010040F2FF72B2EBC4
:10493000515F08BF40F00200012808BF052002B007
:1049400070470907090E002804DB00F1E02080F819
:104950000014704700F00F0000F1E02080F8141DF3
:10496000704700000000000010B52F499FED2C1B80
:104970002DED020B84B0059820F000408842D8BF8E
:104980009DED040B2DDD2949884209D1049840B9D9
:104990004FF00100FBF768FD00F046FD06B010BDCA
:1049A00005DB9DED040B00F033FD06B010BD68463D
:1049B0009DED040B00F044F910F0030004BF9DEDE1
:1049C000021B9DED000B0CD001280ED09DED021BAB
:1049D0009DED000B022817D0012000F081FC06B0ED
:1049E00010BD00F049FB06B010BD9DED021B9DED12
:1049F000000B012000F074FC51EC100B00F034FFB0
:104A000006B041EC100B10BD00F036FB51EC100B62
:104A100000F02AFF06B041EC100B10BD00000000B2
:104A20000000000000000000FB21E93F0000F07FD3
:104A300010B52DED028BB0EE608AF0EE408A18EED4
:104A4000101A18EE900A01F09FFC00F07040B0F1CF
:104A5000005F0CD018EE100A20F00040C0F1FF40BB
:104A6000C00F02BFB0EE480ABDEC028B10BDB0EE25
:104A7000680ABDEC028B10BD10B52DED028BB0EEB7
:104A8000608AF0EE408A18EE101A18EE900A01F0D3
:104A90007BFC00F07040B0F1004F0CD018EE100A13
:104AA00020F00040C0F1FF40C00F02BFB0EE480A46
:104AB000BDEC028B10BDB0EE680ABDEC028B10BDE0
:104AC00010B52F499FED2C1B2DED020B84B00598DE
:104AD00020F000408842DCBF00209DED040B32DD59
:104AE0002849884209D1049840B94FF00100FBF7EA
:104AF000BBFC00F099FC06B010BD05DB9DED040B7E
:104B000000F086FC06B010BD68469DED040B00F079
:104B100097F810F0030011D0012818D09DED021B6A
:104B20009DED000B02281AD000F0A6FA51EC100BF4
:104B300000F09AFE06B041EC100B10BD9DED021B7B
:104B40009DED000B012000F0CBFB06B010BD9DEDEC
:104B5000021B9DED000B00F08FFA06B010BD012086
:104B600000F0BEFB51EC100B00F07EFE06B041ECF5
:104B7000100B10BD0000000000000000000000004D
:104B8000FB21E93F0000F07F00B52DED048BB0EE76
:104B9000409AF0EE609A83B051EC190B01F006FADE
:104BA00041EC180B18EE100A18EE901A8DED008BE0
:104BB000002818BF0120084320F00040C0F17F60AA
:104BC00000F1E040C00F14D019EE101A19EE900A4F
:104BD0008DED009B002918BF0121084320F0004003
:104BE000C0F17F6000F1E040C00F04BF0120FBF77F
:104BF0003BFCB0EE480A03B0F0EE680ABDEC048B53
:104C000000BD10B52DED028BB1EEC08A18EE100A72
:104C100020F00040C0F1FF40C00F0AD010EE100A93
:104C200020F00040C0F1FF40C00F04BF0120FBF79F
:104C30001BFCB0EE480ABDEC028B10BD000000006A
:104C40002DE9F14F04462DED020B2DED088B8AB0B6
:104C50009FEDE70B80ED020B139EE74826F0004521
:104C600085420ADC9DED120B002084ED000B0AB09A
:104C7000BDEC088B03B0BDE8F08FE0489FEDE0ABE2
:104C80009FEDE1BBA84247DDE14F9FEDE39B9FED28
:104C9000E48B9DED120B53EC1A2B51EC100B002EF4
:104CA0001CDD01F04FFA41EC100BBD4208D053EC73
:104CB0001B2B51EC100B01F045FAC4E900010BE08D
:104CC00053EC192B51EC100B01F03CFA53EC182B60
:104CD00001F038FAC4E900010120C8E700F002FE43
:104CE00041EC100BBD4208D053EC1B2B51EC100BC8
:104CF00000F0F8FDC4E900010BE053EC192B51EC76
:104D0000100B00F0EFFD53EC182B00F0EBFDC4E9A5
:104D100000014FF0FF30AAE7C348A84279DB9DEDC0
:104D2000120B51EC100B00F09DFC41EC180B9FEDA9
:104D3000C00B53EC102B01F02FF89FEDBF1B53EC71
:104D4000112B00F0CFFD00F0CDFF074600F0F9FF7A
:104D500041EC190B53EC1A2B01F01EF853EC182BF5
:104D600001F018F941EC180B53EC1B2B51EC190B0B
:104D700001F012F8DFF8C8A241EC100B4FEA155809
:104D80000125FA4453EC102B51EC180B01F0DAF921
:104D9000032DC4E900013DD0C1F30A5005EB4511D4
:104DA000A8EB00001139814234DA0AEB051BB0EEA2
:104DB00048AA9BED000BF0EE68AA53EC102B51ECC7
:104DC000190B00F0E9FF41EC1B0B51EC1A0B53ECF3
:104DD0001B2B01F0B7F941EC180B51EC1A0B53ECFB
:104DE000182B01F0AFF953EC1B2B01F0ABF99BED45
:104DF000020B41EC1A0B53EC102B51EC190B00F089
:104E0000CBFF53EC1A2B01F09DF941EC100B6D1CFC
:104E1000B8E70EE0002EA8BF3846BFF628AF94EDE5
:104E2000000B51EC100B00F01FFDC4E900017842AB
:104E30001DE7C6F3130040F4801EC6F30A50A0F22B
:104E4000F530471100F01F05C5F12000DDF848B02E
:104E500008900020069007900520EC467949002D27
:104E600007EB0002794408BF51F8221009D051F82D
:104E7000223001EB8201AB404A68089922FA01F125
:104E80001943A1FB0E26A1FB0B131A449A4234BF0F
:104E90000123002303EB06080CEB8003D3E901A6F2
:104EA0000E448E4234BF0121002192448A4411B144
:104EB000924502D903E0924501D2012100E0002190
:104EC000C3E901A641444CF82010011EA0F10100E5
:104ED000C4DC029800F10050850F0298DDE90367F9
:104EE0008000DDF8148000F02CFF41EC1A0B3046F6
:104EF00000F03EFF9FED541B53EC112B00F04CFFD4
:104F000041EC1B0B384600F033FF9FED511B53EC77
:104F1000112B00F041FF41EC180B404600F028FF38
:104F20009FED4D1B53EC112B00F036FF41EC190B9C
:104F300051EC180B53EC192B00F0D4FC53EC1B2B49
:104F400000F0D0FC53EC1A2B00F0CCFCCDE90801AA
:104F5000002008909DED080B53EC1A2B51EC100B20
:104F600001F0F0F853EC1B2B01F0ECF853EC182B8C
:104F700001F0E8F853EC192B01F00CF89FED381B09
:104F800053EC112B00F008FF9FED370B41EC180B91
:104F900053EC102B9DED080B51EC100B00F0FCFEB8
:104FA00053EC182B00F09EFC9FED310B41EC180BDD
:104FB00053EC102B9DED080B51EC100B00F0ECFEA8
:104FC00053EC182B00F08EFC41EC100B139810F0F2
:104FD000004F06D06D4251EC100B00F045FC41EC47
:104FE000100B284684ED000B41E600000000000095
:104FF0000000000000000000FB21E93F7CD90240D6
:1050000000004054FB21F93F3163621A61B4D03D86
:10501000FB21F93F000000000000601A61B4D03DA0
:105020007370032E8A19A33BFB2139410000000055
:1050300083C8C96D305FE43F000000000000E03F1E
:105040006A170000B8160000000000000000103EC3
:10505000000000000000103C000000000000103ABA
:10506000182D4454FB21F93D3326A611460B113C63
:1050700000000054FB21F93D10B52DED040B2DED82
:10508000088B82B0B0EE419AF0EE619A0B9820F056
:1050900000449FED4BABB4F1795F11DA9DED0A0B43
:1050A00051EC100B00F01EFE002801BFB0EE4A0AC2
:1050B000F0EE6A0A02B0BDEC088B04BF04B010BD6C
:1050C0009DED0A0B53EC102B51EC100B00F064FE1D
:1050D00041EC180B3C480621B0EE480AF0EE680A95
:1050E000784400F081F853EC182B51EC100B00F0D1
:1050F00053FE9DED0A0B41EC1B0B53EC192B51ECAD
:10510000100B00F049FE41EC190B53EC1B2B51EC3A
:10511000180B00F041FE53EC192B01F013F89FED32
:105120002C0B41EC190B53EC102B51EC180B00F02D
:1051300033FE41EC100B2848844210DA53EC192B53
:1051400051EC100B00F0FEFF53EC1A2B00F022FF85
:1051500041EC100B02B0BDEC088B04B010BD1F4831
:10516000A042BCBF9FED1E1B8DED001B06DBA4F50E
:1051700000100190002000909DED001B51EC100BE1
:1051800053EC112B00F0DEFF9DED000B41EC180BF2
:1051900053EC102B51EC1A0B00F0D4FF41EC1A0B1E
:1051A00053EC192B51EC180B00F0CCFF53EC1A2BDD
:1051B00000F0F0FE41EC100BCCE700000000000016
:1051C000000000000000F03FDC13000000000000C1
:1051D000000000000000E03F3333D33F0000E93F10
:1051E000000000000000D23F70B504462DED028B98
:1051F0004D1E00EBC500B0EE408AF0EE608A90EDE7
:10520000000B35F0060017D053EC182B51EC100BA7
:1052100000F0C2FD41EC100B6D1E04EBC50090EDDB
:10522000001B51EC100B53EC112B00F05BFB41EC1D
:10523000100B35F00600E7D1022D36D0042D1CD01E
:10524000062D1CBFBDEC028B70BD53EC182B51EC2E
:10525000100B00F0A1FD94ED0A1B53EC112B00F094
:1052600041FB53EC182B00F097FD94ED081B53EC19
:10527000112B00F037FB41EC100B53EC182B51ECC9
:10528000100B00F089FD94ED061B53EC112B00F080
:1052900029FB53EC182B00F07FFD94ED040B53EC2D
:1052A000102B00F01FFB41EC100B53EC182B51ECB2
:1052B000100B00F071FD94ED021B53EC112B00F06C
:1052C00011FB53EC182B00F067FD94ED001B53EC21
:1052D000112B00F007FBBDEC028B41EC100B70BDF5
:1052E00031B504462DED040B2DED0A8BB0EE41BA1D
:1052F000F0EE61BA0B989DED0A0B20F00040B0F182
:10530000795F0DDA51EC100BFFF703FB042808BF9F
:1053100000F09AF89DED0A0BBDEC0A8B05B030BD8C
:1053200053EC102B51EC100B00F036FD41EC180B38
:105330009DED0A0B53EC182B51EC100B00F02CFDDB
:1053400041EC190B2C48B0EE480AF0EE680A052132
:105350007844FFF749FF9FED2ACBB0EE40AAF0EE6C
:1053600060AA9CB353EC1C2B51EC190B00F014FDFC
:1053700041EC1C0B53EC1A2B51EC190B00F00CFDFB
:105380009FED210B41EC190B53EC102B51EC1B0B37
:1053900000F002FD53EC192B00F0D4FE53EC182B57
:1053A00000F0FAFC53EC1B2B00F0CCFE53EC1C2B52
:1053B00000F0C8FE9DED0A1B53EC112B00F0EAFD36
:1053C000BDEC0A8B05B041EC100B30BDFFE753EC90
:1053D0001A2B51EC180B00F0DFFC53EC1C2B00F0E7
:1053E00081FA53EC192B00F0D7FC9DED0A1B53EC0E
:1053F000112B00F077FAE3E76412000000000000D0
:10540000495555555555C5BF000000000000E03F07
:1054100010B553EC102B51EC100B00F063FA41EC7B
:10542000100B10BD000000009FED050B10B553ECF4
:10543000102B51EC100B00F0FDFA41EC100B10BDDD
:1054400000000000000000009FED050B10B553ECBC
:10545000102B51EC100B00F09FFC41EC100B10BD19
:10546000000000000000001010B51D4C2DED048B55
:10547000B0EE408A206800F04FFF41EC100BFFF7C0
:105480001FFBB0EE409AB1EE480AF0EE609A10EEC3
:10549000100A00F041FF53EC192B00F07DFC00F0E6
:1054A000EFF908EE900A206800F036FF41EC100B8F
:1054B000FFF75AFAB0EE409AF0EE609A18EE100A32
:1054C00000F02AFF53EC192B00F066FC00F0D8F92D
:1054D000B0EE680ABDEC048B00EE900A10BD00002F
:1054E0002C0000200FB4B0EE001A70B52DED068B25
:1054F0009DED0D8ADDED0E0AB0EE480A00EE810A40
:1055000010EE100A00F008FF9FED2DAB41EC190BD7
:10551000B0EE4A0AF0EE6A0AFFF736FB53EC1A2B9C
:1055200051EC100B00F086FA53EC192B00F034FC10
:1055300000F0A6F9244C0546206800F0EDFE41EC91
:10554000100BFFF7BDFA206800F0E6FE41EC100BEF
:10555000FFF70AFA206800F0DFFE41EC100BFFF7BE
:1055600003FAB0EE409AF0EE609A284600F0D4FEBE
:1055700053EC192B00F010FC41EC190B206800F0E3
:10558000CBFE41EC100BFFF79BFAB0EE40AAB1EE58
:10559000480AF0EE60AA10EE100A00F0BDFE53ECCF
:1055A0001A2B00F0F9FB53EC192B00F09BF900F0DB
:1055B00067F9BDEC068B00EE100A70BC5DF814FBB9
:1055C00000000000000008402C0000202DE9FC41F4
:1055D00000EE100A15461E460C46DDE90A17DDE905
:1055E0000823B8EE400A284684ED000ACDE90017EA
:1055F0003146FFF777FF84ED080AD4ED000A15491C
:1056000070EEC00AC4ED0A0A94ED020A20EE201AD8
:1056100084ED0E1A94ED0F0AD4ED031A01EEA00AE0
:1056200084ED0F0A31EE000A10EE100A84ED140A20
:10563000884203DB9FED080A84ED140A10EE100A7D
:105640000649884203D99FED060A84ED140ABDE895
:10565000FC8100001F8547411F8547411F8547C1C9
:105660001F8547C182B0CDE9000121F000400190C3
:105670009DED000B02B051EC100B7047FCF760FB86
:10568000FEF726FCFEF726FAFEF762F9FEF7DAF9D6
:10569000FEF73EFAFEF756FAFEF76EFAFEF786FAC6
:1056A000FEF7FEFAFEF728FBFEF748FB2748FCF75B
:1056B00095FC2748FCF792FC2648FCF78FFC26480F
:1056C000FCF78CF92548FCF789F97F212248FBF784
:1056D00025F87F212148FBF721F8214941F63F7049
:1056E00008601F49401E143108601E48FDF72CFC5D
:1056F0001D48FDF7F3FB1D48FDF7A0FA00211A48ED
:10570000FDF706FF04211848FDF702FF082116489F
:10571000FDF7FEFE00211448FDF734FB042112487A
:10572000FDF730FB08211048FDF72CFB0C210E483B
:10573000FDF7EEFE0E48B0EE080A80ED020A0648BC
:10574000FBF77AFB0548FBF777FBF8E7EC01002055
:1057500028020020640200201401002080010020A3
:105760002C2C014038030020A0020020EC02002075
:10577000B00000202DE9F04736480068364F00EEB3
:10578000100A3448B8EE400A001D87ED000A006890
:1057900007F1040800EE100A2E48B8EE400A08305F
:1057A00088ED000A006807F1080500EE100A2B4892
:1057B0002E1DB8EE400A05F10809002485ED000A07
:1057C00090ED000A264886ED000A90ED080A89ED62
:1057D000000A39190A2301222248FEF70FF8641C37
:1057E000042CF6DB0024474639190A2301221D4800
:1057F000FEF704F8641C042CF6DB002429190A23A4
:1058000001221848FDF7FAFF641C042CF6DB002483
:1058100031190A2301221348FDF7F0FF641C042C00
:10582000F6DB00244D4629190A2301220D48FDF715
:10583000E5FF641C042CF6DB074D0024ED1F29193D
:105840000A2301220748FDF7D9FF641C042CF6DB6C
:10585000BDE8F087342C0140080000203000002013
:10586000B00000208403002081F00041704780F0E8
:105870000040704721F00041704720F00040704721
:1058800021F00042A2F16052B2F5801F01F0004306
:1058900028BFD2F17F6C0BD95FEA001C43EAC20239
:1058A00042EB507018BF704728BF20F001007047CE
:1058B000B2F5801FBCBF184670474FEA410C1CF57B
:1058C000001F02D2084600F0D3BD70B500F00EFBF9
:1058D00000000089FFF7F6BF4FF00040A0F5800000
:1058E0007047000010B591EA030F48BF83F00043F2
:1058F00000F13084841A71EB030C05D2121943EBCA
:105900000C03001B61EB0C01DFF824E14FEA11549A
:10591000A4EB135C1EEA430F18BF9EEA445F73D0EA
:1059200023EA0E03DCF1200E21EA045143F4801334
:1059300032D322FA0CFE10EB0E0023FA0CFE41EBE0
:105940000E01CCF1200E03FA0EFE10EB0E0051F109
:105950000001B1F5801FCCF1200E32D201EB0451D1
:1059600012FA0EF2BDE8104058BF7047401C38BF15
:105970005FEA420218BF7047002814BF20F0010000
:1059800041F100014FEA410313F5001F38BF704792
:10599000A1F1C04100F0F8BA012A43EB0302ACF1D7
:1059A000200CDCF11F0E32BF4FF0000E23FA0CF377
:1059B00010EB030041EB0451B4EB115FD0D0A1EB2D
:1059C000045101F5801149085FEA300001EB0451F0
:1059D0000ED350F1000038BF12FA0EFE08D1BDE818
:1059E0001040C9E7401C38BF5FEA4202CAD1C3E792
:1059F000BDE810404FEA410313F5001F38BF704760
:105A0000A1F1C04100F0C0BA9EEA445F08D011EA9B
:105A10005E0FBDE8104004BF01F000410020704758
:105A2000BDE8104070B500F061FA00BF64FBBE3EF7
:105A30000000E0FF2DE9C04130B4DFF8A0C23CEA2D
:105A4000111418BF3CEA131400F0EC8081EA03053E
:105A50001CEA111444EAD57418BF1CEA131500F0AF
:105A6000C780A4EB05044FF0004545EAC12145EA93
:105A7000C32341EA505143EA525304F17F749942DF
:105A800004F500344FEAC0204FEAC22208BF90421A
:105A900000F09C804FEA13650FF24016765D4FEAE6
:105AA000134506FB05F7C7F1807706FB07F74FEABA
:105AB000D737A7FB03687642C8F58038A7FB06CE28
:105AC00038BFA8F1010807FB08E64FF0000EA6FB5F
:105AD000028CE6FB03CEDCF1000CCEF1004E38BFA9
